{
  "contractName": "Question",
  "abi": [
    {
      "inputs": [
        {
          "internalType": "uint256",
          "name": "_id",
          "type": "uint256"
        },
        {
          "internalType": "string",
          "name": "_question",
          "type": "string"
        },
        {
          "internalType": "string",
          "name": "_option1",
          "type": "string"
        },
        {
          "internalType": "string",
          "name": "_option2",
          "type": "string"
        }
      ],
      "stateMutability": "nonpayable",
      "type": "constructor"
    },
    {
      "inputs": [],
      "name": "id",
      "outputs": [
        {
          "internalType": "uint256",
          "name": "",
          "type": "uint256"
        }
      ],
      "stateMutability": "view",
      "type": "function"
    },
    {
      "inputs": [],
      "name": "option1",
      "outputs": [
        {
          "internalType": "string",
          "name": "",
          "type": "string"
        }
      ],
      "stateMutability": "view",
      "type": "function"
    },
    {
      "inputs": [],
      "name": "option2",
      "outputs": [
        {
          "internalType": "string",
          "name": "",
          "type": "string"
        }
      ],
      "stateMutability": "view",
      "type": "function"
    },
    {
      "inputs": [],
      "name": "question",
      "outputs": [
        {
          "internalType": "string",
          "name": "",
          "type": "string"
        }
      ],
      "stateMutability": "view",
      "type": "function"
    },
    {
      "inputs": [
        {
          "internalType": "address",
          "name": "",
          "type": "address"
        }
      ],
      "name": "votedFor",
      "outputs": [
        {
          "internalType": "uint256",
          "name": "",
          "type": "uint256"
        }
      ],
      "stateMutability": "view",
      "type": "function"
    },
    {
      "inputs": [
        {
          "internalType": "uint256",
          "name": "",
          "type": "uint256"
        }
      ],
      "name": "voters",
      "outputs": [
        {
          "internalType": "address",
          "name": "",
          "type": "address"
        }
      ],
      "stateMutability": "view",
      "type": "function"
    },
    {
      "inputs": [],
      "name": "votes",
      "outputs": [
        {
          "internalType": "uint256",
          "name": "",
          "type": "uint256"
        }
      ],
      "stateMutability": "view",
      "type": "function"
    },
    {
      "inputs": [
        {
          "internalType": "address",
          "name": "_address",
          "type": "address"
        }
      ],
      "name": "checkVote",
      "outputs": [
        {
          "internalType": "uint256",
          "name": "",
          "type": "uint256"
        }
      ],
      "stateMutability": "view",
      "type": "function"
    },
    {
      "inputs": [
        {
          "internalType": "uint256",
          "name": "_option",
          "type": "uint256"
        },
        {
          "internalType": "address",
          "name": "_address",
          "type": "address"
        }
      ],
      "name": "vote",
      "outputs": [],
      "stateMutability": "payable",
      "type": "function"
    },
    {
      "inputs": [],
      "name": "getVotes1",
      "outputs": [
        {
          "internalType": "uint256",
          "name": "",
          "type": "uint256"
        }
      ],
      "stateMutability": "view",
      "type": "function"
    },
    {
      "inputs": [],
      "name": "getVotes2",
      "outputs": [
        {
          "internalType": "uint256",
          "name": "",
          "type": "uint256"
        }
      ],
      "stateMutability": "view",
      "type": "function"
    }
  ],
  "bytecode": "0x60806040523480156200001157600080fd5b5060405162000eab38038062000eab83398181016040528101906200003791906200031b565b8360008190555082600290805190602001906200005692919062000093565b5081600390805190602001906200006f92919062000093565b5080600490805190602001906200008892919062000093565b50505050506200044f565b828054620000a19062000419565b90600052602060002090601f016020900481019282620000c5576000855562000111565b82601f10620000e057805160ff191683800117855562000111565b8280016001018555821562000111579182015b8281111562000110578251825591602001919060010190620000f3565b5b50905062000120919062000124565b5090565b5b808211156200013f57600081600090555060010162000125565b5090565b6000604051905090565b600080fd5b600080fd5b6000819050919050565b6200016c8162000157565b81146200017857600080fd5b50565b6000815190506200018c8162000161565b92915050565b600080fd5b600080fd5b6000601f19601f8301169050919050565b7f4e487b7100000000000000000000000000000000000000000000000000000000600052604160045260246000fd5b620001e7826200019c565b810181811067ffffffffffffffff82111715620002095762000208620001ad565b5b80604052505050565b60006200021e62000143565b90506200022c8282620001dc565b919050565b600067ffffffffffffffff8211156200024f576200024e620001ad565b5b6200025a826200019c565b9050602081019050919050565b60005b83811015620002875780820151818401526020810190506200026a565b8381111562000297576000848401525b50505050565b6000620002b4620002ae8462000231565b62000212565b905082815260208101848484011115620002d357620002d262000197565b5b620002e084828562000267565b509392505050565b600082601f8301126200030057620002ff62000192565b5b8151620003128482602086016200029d565b91505092915050565b600080600080608085870312156200033857620003376200014d565b5b600062000348878288016200017b565b945050602085015167ffffffffffffffff8111156200036c576200036b62000152565b5b6200037a87828801620002e8565b935050604085015167ffffffffffffffff8111156200039e576200039d62000152565b5b620003ac87828801620002e8565b925050606085015167ffffffffffffffff811115620003d057620003cf62000152565b5b620003de87828801620002e8565b91505092959194509250565b7f4e487b7100000000000000000000000000000000000000000000000000000000600052602260045260246000fd5b600060028204905060018216806200043257607f821691505b60208210811415620004495762000448620003ea565b5b50919050565b610a4c806200045f6000396000f3fe60806040526004361061009c5760003560e01c8063a4e3d11111610064578063a4e3d1111461017b578063ad69ab95146101a6578063af640d0f146101d1578063da58c7d9146101fc578063e168c3ec14610239578063f594f13f146102645761009c565b806302d947ef146100a15780633fad9ae0146100bd5780635a0857d4146100e857806392d2e43814610125578063a051220214610150575b600080fd5b6100bb60048036038101906100b69190610728565b6102a1565b005b3480156100c957600080fd5b506100d2610425565b6040516100df9190610801565b60405180910390f35b3480156100f457600080fd5b5061010f600480360381019061010a9190610823565b6104b3565b60405161011c919061085f565b60405180910390f35b34801561013157600080fd5b5061013a6104fc565b6040516101479190610801565b60405180910390f35b34801561015c57600080fd5b5061016561058a565b604051610172919061085f565b60405180910390f35b34801561018757600080fd5b50610190610594565b60405161019d919061085f565b60405180910390f35b3480156101b257600080fd5b506101bb61059e565b6040516101c89190610801565b60405180910390f35b3480156101dd57600080fd5b506101e661062c565b6040516101f3919061085f565b60405180910390f35b34801561020857600080fd5b50610223600480360381019061021e919061087a565b610632565b60405161023091906108b6565b60405180910390f35b34801561024557600080fd5b5061024e610671565b60405161025b919061085f565b60405180910390f35b34801561027057600080fd5b5061028b60048036038101906102869190610823565b610677565b604051610298919061085f565b60405180910390f35b6000600860003373ffffffffffffffffffffffffffffffffffffffff1673ffffffffffffffffffffffffffffffffffffffff1681526020019081526020016000205414610323576040517f08c379a000000000000000000000000000000000000000000000000000000000815260040161031a9061091d565b60405180910390fd5b81600860008373ffffffffffffffffffffffffffffffffffffffff1673ffffffffffffffffffffffffffffffffffffffff16815260200190815260200160002081905550600182141561038d57600560008154809291906103839061096c565b91905055506103a6565b600660008154809291906103a09061096c565b91905055505b600160008154809291906103b99061096c565b91905055506007339080600181540180825580915050600190039060005260206000200160009091909190916101000a81548173ffffffffffffffffffffffffffffffffffffffff021916908373ffffffffffffffffffffffffffffffffffffffff1602179055505050565b60028054610432906109e4565b80601f016020809104026020016040519081016040528092919081815260200182805461045e906109e4565b80156104ab5780601f10610480576101008083540402835291602001916104ab565b820191906000526020600020905b81548152906001019060200180831161048e57829003601f168201915b505050505081565b6000600860008373ffffffffffffffffffffffffffffffffffffffff1673ffffffffffffffffffffffffffffffffffffffff168152602001908152602001600020549050919050565b60038054610509906109e4565b80601f0160208091040260200160405190810160405280929190818152602001828054610535906109e4565b80156105825780601f1061055757610100808354040283529160200191610582565b820191906000526020600020905b81548152906001019060200180831161056557829003601f168201915b505050505081565b6000600554905090565b6000600654905090565b600480546105ab906109e4565b80601f01602080910402602001604051908101604052809291908181526020018280546105d7906109e4565b80156106245780601f106105f957610100808354040283529160200191610624565b820191906000526020600020905b81548152906001019060200180831161060757829003601f168201915b505050505081565b60005481565b6007818154811061064257600080fd5b906000526020600020016000915054906101000a900473ffffffffffffffffffffffffffffffffffffffff1681565b60015481565b60086020528060005260406000206000915090505481565b600080fd5b6000819050919050565b6106a781610694565b81146106b257600080fd5b50565b6000813590506106c48161069e565b92915050565b600073ffffffffffffffffffffffffffffffffffffffff82169050919050565b60006106f5826106ca565b9050919050565b610705816106ea565b811461071057600080fd5b50565b600081359050610722816106fc565b92915050565b6000806040838503121561073f5761073e61068f565b5b600061074d858286016106b5565b925050602061075e85828601610713565b9150509250929050565b600081519050919050565b600082825260208201905092915050565b60005b838110156107a2578082015181840152602081019050610787565b838111156107b1576000848401525b50505050565b6000601f19601f8301169050919050565b60006107d382610768565b6107dd8185610773565b93506107ed818560208601610784565b6107f6816107b7565b840191505092915050565b6000602082019050818103600083015261081b81846107c8565b905092915050565b6000602082840312156108395761083861068f565b5b600061084784828501610713565b91505092915050565b61085981610694565b82525050565b60006020820190506108746000830184610850565b92915050565b6000602082840312156108905761088f61068f565b5b600061089e848285016106b5565b91505092915050565b6108b0816106ea565b82525050565b60006020820190506108cb60008301846108a7565b92915050565b7f416c726561647920766f74656400000000000000000000000000000000000000600082015250565b6000610907600d83610773565b9150610912826108d1565b602082019050919050565b60006020820190508181036000830152610936816108fa565b9050919050565b7f4e487b7100000000000000000000000000000000000000000000000000000000600052601160045260246000fd5b600061097782610694565b91507fffffffffffffffffffffffffffffffffffffffffffffffffffffffffffffffff8214156109aa576109a961093d565b5b600182019050919050565b7f4e487b7100000000000000000000000000000000000000000000000000000000600052602260045260246000fd5b600060028204905060018216806109fc57607f821691505b60208210811415610a1057610a0f6109b5565b5b5091905056fea26469706673582212201334ffe1a570491bf642f06f5d8b9dc655048b2980ef0f441d74715d35add90e64736f6c634300080b0033",
  "immutableReferences": {},
  "source": "//SPDX-License-Identifier: MIT\r\npragma solidity 0.8.11;\r\n\r\ncontract Question{\r\n\r\n    uint public id;\r\n    uint public votes;\r\n    string public question;\r\n    string public option1;\r\n    string public option2;\r\n\r\n    uint private votes1;\r\n    uint private votes2;\r\n\r\n    address[] public voters;\r\n\r\n    mapping(address => uint) public votedFor;\r\n\r\n    constructor(uint _id, string memory _question, string memory _option1, string memory _option2){\r\n        id = _id;\r\n        question =_question;\r\n        option1 =_option1;\r\n        option2 =_option2;\r\n    }\r\n\r\n    function checkVote(address _address) public view returns (uint){\r\n        return votedFor[_address];\r\n    }\r\n\r\n    function vote( uint _option, address _address) public payable {\r\n        require(votedFor[msg.sender] == 0,\"Already voted\");\r\n        votedFor[_address] = _option;\r\n        if(_option==1){\r\n            votes1++;\r\n        }\r\n        else{\r\n            votes2++;\r\n        }\r\n        votes++;\r\n        voters.push(msg.sender);\r\n    }\r\n\r\n    function getVotes1() public view returns(uint){\r\n        return votes1;\r\n    }\r\n\r\n    function getVotes2() public view returns(uint){\r\n        return votes2;\r\n    }\r\n    \r\n}",
  "sourcePath": "C:\\Users\\ralph\\OneDrive\\Desktop\\sol\\VotingApp\\app\\contracts\\Question.sol",
  "compiler": {
    "name": "solc",
    "version": "0.8.11+commit.d7f03943.Emscripten.clang"
  },
  "schemaVersion": "3.4.5",
  "updatedAt": "2022-03-20T16:52:25.554Z",
  "devdoc": {
    "kind": "dev",
    "methods": {},
    "version": 1
  },
  "userdoc": {
    "kind": "user",
    "methods": {},
    "version": 1
  }
}