{
  "contractName": "Question",
  "abi": [
    {
      "inputs": [
        {
          "internalType": "uint256",
          "name": "_id",
          "type": "uint256"
        },
        {
          "internalType": "string",
          "name": "_question",
          "type": "string"
        },
        {
          "internalType": "string",
          "name": "_option1",
          "type": "string"
        },
        {
          "internalType": "string",
          "name": "_option2",
          "type": "string"
        }
      ],
      "stateMutability": "nonpayable",
      "type": "constructor"
    },
    {
      "inputs": [],
      "name": "closed",
      "outputs": [
        {
          "internalType": "bool",
          "name": "",
          "type": "bool"
        }
      ],
      "stateMutability": "view",
      "type": "function"
    },
    {
      "inputs": [],
      "name": "id",
      "outputs": [
        {
          "internalType": "uint256",
          "name": "",
          "type": "uint256"
        }
      ],
      "stateMutability": "view",
      "type": "function"
    },
    {
      "inputs": [],
      "name": "option1",
      "outputs": [
        {
          "internalType": "string",
          "name": "",
          "type": "string"
        }
      ],
      "stateMutability": "view",
      "type": "function"
    },
    {
      "inputs": [],
      "name": "option2",
      "outputs": [
        {
          "internalType": "string",
          "name": "",
          "type": "string"
        }
      ],
      "stateMutability": "view",
      "type": "function"
    },
    {
      "inputs": [],
      "name": "owner",
      "outputs": [
        {
          "internalType": "address",
          "name": "",
          "type": "address"
        }
      ],
      "stateMutability": "view",
      "type": "function"
    },
    {
      "inputs": [],
      "name": "question",
      "outputs": [
        {
          "internalType": "string",
          "name": "",
          "type": "string"
        }
      ],
      "stateMutability": "view",
      "type": "function"
    },
    {
      "inputs": [
        {
          "internalType": "address",
          "name": "",
          "type": "address"
        }
      ],
      "name": "votedFor",
      "outputs": [
        {
          "internalType": "uint256",
          "name": "",
          "type": "uint256"
        }
      ],
      "stateMutability": "view",
      "type": "function"
    },
    {
      "inputs": [
        {
          "internalType": "uint256",
          "name": "",
          "type": "uint256"
        }
      ],
      "name": "voters",
      "outputs": [
        {
          "internalType": "address",
          "name": "",
          "type": "address"
        }
      ],
      "stateMutability": "view",
      "type": "function"
    },
    {
      "inputs": [],
      "name": "votes",
      "outputs": [
        {
          "internalType": "uint256",
          "name": "",
          "type": "uint256"
        }
      ],
      "stateMutability": "view",
      "type": "function"
    },
    {
      "inputs": [],
      "name": "winner",
      "outputs": [
        {
          "internalType": "uint256",
          "name": "",
          "type": "uint256"
        }
      ],
      "stateMutability": "view",
      "type": "function"
    },
    {
      "inputs": [],
      "name": "returnBalance",
      "outputs": [
        {
          "internalType": "uint256",
          "name": "",
          "type": "uint256"
        }
      ],
      "stateMutability": "view",
      "type": "function"
    },
    {
      "inputs": [
        {
          "internalType": "address",
          "name": "_address",
          "type": "address"
        }
      ],
      "name": "checkVote",
      "outputs": [
        {
          "internalType": "uint256",
          "name": "",
          "type": "uint256"
        }
      ],
      "stateMutability": "view",
      "type": "function"
    },
    {
      "inputs": [
        {
          "internalType": "uint256",
          "name": "_option",
          "type": "uint256"
        },
        {
          "internalType": "address",
          "name": "_address",
          "type": "address"
        },
        {
          "internalType": "uint256",
          "name": "_fee",
          "type": "uint256"
        },
        {
          "internalType": "uint256",
          "name": "_bid",
          "type": "uint256"
        }
      ],
      "name": "vote",
      "outputs": [],
      "stateMutability": "payable",
      "type": "function"
    },
    {
      "inputs": [],
      "name": "closeQuestion",
      "outputs": [],
      "stateMutability": "nonpayable",
      "type": "function"
    }
  ],
  "bytecode": "0x60806040523480156200001157600080fd5b506040516200121d3803806200121d833981810160405281019062000037919062000376565b336000806101000a81548173ffffffffffffffffffffffffffffffffffffffff021916908373ffffffffffffffffffffffffffffffffffffffff16021790555083600181905550826004908051906020019062000096929190620000ee565b508160059080519060200190620000af929190620000ee565b508060069080519060200190620000c8929190620000ee565b506000600760006101000a81548160ff02191690831515021790555050505050620004aa565b828054620000fc9062000474565b90600052602060002090601f0160209004810192826200012057600085556200016c565b82601f106200013b57805160ff19168380011785556200016c565b828001600101855582156200016c579182015b828111156200016b5782518255916020019190600101906200014e565b5b5090506200017b91906200017f565b5090565b5b808211156200019a57600081600090555060010162000180565b5090565b6000604051905090565b600080fd5b600080fd5b6000819050919050565b620001c781620001b2565b8114620001d357600080fd5b50565b600081519050620001e781620001bc565b92915050565b600080fd5b600080fd5b6000601f19601f8301169050919050565b7f4e487b7100000000000000000000000000000000000000000000000000000000600052604160045260246000fd5b6200024282620001f7565b810181811067ffffffffffffffff8211171562000264576200026362000208565b5b80604052505050565b6000620002796200019e565b905062000287828262000237565b919050565b600067ffffffffffffffff821115620002aa57620002a962000208565b5b620002b582620001f7565b9050602081019050919050565b60005b83811015620002e2578082015181840152602081019050620002c5565b83811115620002f2576000848401525b50505050565b60006200030f62000309846200028c565b6200026d565b9050828152602081018484840111156200032e576200032d620001f2565b5b6200033b848285620002c2565b509392505050565b600082601f8301126200035b576200035a620001ed565b5b81516200036d848260208601620002f8565b91505092915050565b60008060008060808587031215620003935762000392620001a8565b5b6000620003a387828801620001d6565b945050602085015167ffffffffffffffff811115620003c757620003c6620001ad565b5b620003d58782880162000343565b935050604085015167ffffffffffffffff811115620003f957620003f8620001ad565b5b620004078782880162000343565b925050606085015167ffffffffffffffff8111156200042b576200042a620001ad565b5b620004398782880162000343565b91505092959194509250565b7f4e487b7100000000000000000000000000000000000000000000000000000000600052602260045260246000fd5b600060028204905060018216806200048d57607f821691505b60208210811415620004a457620004a362000445565b5b50919050565b610d6380620004ba6000396000f3fe6080604052600436106100dd5760003560e01c806398e434dd1161007f578063da58c7d911610059578063da58c7d91461027f578063dfbf53ae146102bc578063e168c3ec146102e7578063f594f13f14610312576100dd565b806398e434dd1461020d578063ad69ab9514610229578063af640d0f14610254576100dd565b80636143bb03116100bb5780636143bb03146101755780638da5cb5b1461018c578063900551a8146101b757806392d2e438146101e2576100dd565b80633fad9ae0146100e2578063597e1fb51461010d5780635a0857d414610138575b600080fd5b3480156100ee57600080fd5b506100f761034f565b6040516101049190610920565b60405180910390f35b34801561011957600080fd5b506101226103dd565b60405161012f919061095d565b60405180910390f35b34801561014457600080fd5b5061015f600480360381019061015a91906109db565b6103f0565b60405161016c9190610a21565b60405180910390f35b34801561018157600080fd5b5061018a610439565b005b34801561019857600080fd5b506101a16104ec565b6040516101ae9190610a4b565b60405180910390f35b3480156101c357600080fd5b506101cc610510565b6040516101d99190610a21565b60405180910390f35b3480156101ee57600080fd5b506101f761051a565b6040516102049190610920565b60405180910390f35b61022760048036038101906102229190610a92565b6105a8565b005b34801561023557600080fd5b5061023e610752565b60405161024b9190610920565b60405180910390f35b34801561026057600080fd5b506102696107e0565b6040516102769190610a21565b60405180910390f35b34801561028b57600080fd5b506102a660048036038101906102a19190610af9565b6107e6565b6040516102b39190610a4b565b60405180910390f35b3480156102c857600080fd5b506102d1610825565b6040516102de9190610a21565b60405180910390f35b3480156102f357600080fd5b506102fc61082b565b6040516103099190610a21565b60405180910390f35b34801561031e57600080fd5b50610339600480360381019061033491906109db565b610831565b6040516103469190610a21565b60405180910390f35b6004805461035c90610b55565b80601f016020809104026020016040519081016040528092919081815260200182805461038890610b55565b80156103d55780601f106103aa576101008083540402835291602001916103d5565b820191906000526020600020905b8154815290600101906020018083116103b857829003601f168201915b505050505081565b600760009054906101000a900460ff1681565b6000600c60008373ffffffffffffffffffffffffffffffffffffffff1673ffffffffffffffffffffffffffffffffffffffff168152602001908152602001600020549050919050565b60008054906101000a900473ffffffffffffffffffffffffffffffffffffffff1673ffffffffffffffffffffffffffffffffffffffff163373ffffffffffffffffffffffffffffffffffffffff16146104c7576040517f08c379a00000000000000000000000000000000000000000000000000000000081526004016104be90610bd3565b60405180910390fd5b6001600760006101000a81548160ff0219169083151502179055506104ea610849565b565b60008054906101000a900473ffffffffffffffffffffffffffffffffffffffff1681565b6000600854905090565b6005805461052790610b55565b80601f016020809104026020016040519081016040528092919081815260200182805461055390610b55565b80156105a05780601f10610575576101008083540402835291602001916105a0565b820191906000526020600020905b81548152906001019060200180831161058357829003601f168201915b505050505081565b6000600c60003373ffffffffffffffffffffffffffffffffffffffff1673ffffffffffffffffffffffffffffffffffffffff168152602001908152602001600020541461062a576040517f08c379a000000000000000000000000000000000000000000000000000000000815260040161062190610c3f565b60405180910390fd5b83600c60008573ffffffffffffffffffffffffffffffffffffffff1673ffffffffffffffffffffffffffffffffffffffff168152602001908152602001600020819055506001841415610694576009600081548092919061068a90610c8e565b91905055506106ad565b600a60008154809291906106a790610c8e565b91905055505b600260008154809291906106c090610c8e565b919050555080826106d19190610cd7565b600860008282546106e29190610cd7565b92505081905550600b339080600181540180825580915050600190039060005260206000200160009091909190916101000a81548173ffffffffffffffffffffffffffffffffffffffff021916908373ffffffffffffffffffffffffffffffffffffffff16021790555050505050565b6006805461075f90610b55565b80601f016020809104026020016040519081016040528092919081815260200182805461078b90610b55565b80156107d85780601f106107ad576101008083540402835291602001916107d8565b820191906000526020600020905b8154815290600101906020018083116107bb57829003601f168201915b505050505081565b60015481565b600b81815481106107f657600080fd5b906000526020600020016000915054906101000a900473ffffffffffffffffffffffffffffffffffffffff1681565b60035481565b60025481565b600c6020528060005260406000206000915090505481565b610851610873565b61085961087d565b11610865576001610868565b60025b60ff16600381905550565b6000600a54905090565b6000600954905090565b600081519050919050565b600082825260208201905092915050565b60005b838110156108c15780820151818401526020810190506108a6565b838111156108d0576000848401525b50505050565b6000601f19601f8301169050919050565b60006108f282610887565b6108fc8185610892565b935061090c8185602086016108a3565b610915816108d6565b840191505092915050565b6000602082019050818103600083015261093a81846108e7565b905092915050565b60008115159050919050565b61095781610942565b82525050565b6000602082019050610972600083018461094e565b92915050565b600080fd5b600073ffffffffffffffffffffffffffffffffffffffff82169050919050565b60006109a88261097d565b9050919050565b6109b88161099d565b81146109c357600080fd5b50565b6000813590506109d5816109af565b92915050565b6000602082840312156109f1576109f0610978565b5b60006109ff848285016109c6565b91505092915050565b6000819050919050565b610a1b81610a08565b82525050565b6000602082019050610a366000830184610a12565b92915050565b610a458161099d565b82525050565b6000602082019050610a606000830184610a3c565b92915050565b610a6f81610a08565b8114610a7a57600080fd5b50565b600081359050610a8c81610a66565b92915050565b60008060008060808587031215610aac57610aab610978565b5b6000610aba87828801610a7d565b9450506020610acb878288016109c6565b9350506040610adc87828801610a7d565b9250506060610aed87828801610a7d565b91505092959194509250565b600060208284031215610b0f57610b0e610978565b5b6000610b1d84828501610a7d565b91505092915050565b7f4e487b7100000000000000000000000000000000000000000000000000000000600052602260045260246000fd5b60006002820490506001821680610b6d57607f821691505b60208210811415610b8157610b80610b26565b5b50919050565b7f41646472657373206d757374206265206f776e65720000000000000000000000600082015250565b6000610bbd601583610892565b9150610bc882610b87565b602082019050919050565b60006020820190508181036000830152610bec81610bb0565b9050919050565b7f416c726561647920766f74656400000000000000000000000000000000000000600082015250565b6000610c29600d83610892565b9150610c3482610bf3565b602082019050919050565b60006020820190508181036000830152610c5881610c1c565b9050919050565b7f4e487b7100000000000000000000000000000000000000000000000000000000600052601160045260246000fd5b6000610c9982610a08565b91507fffffffffffffffffffffffffffffffffffffffffffffffffffffffffffffffff821415610ccc57610ccb610c5f565b5b600182019050919050565b6000610ce282610a08565b9150610ced83610a08565b9250827fffffffffffffffffffffffffffffffffffffffffffffffffffffffffffffffff03821115610d2257610d21610c5f565b5b82820190509291505056fea264697066735822122017fc8d13ed65b0d06a7031d3f25fc83fb82f907cb974331923f1446b430328ea64736f6c634300080b0033",
  "immutableReferences": {},
  "source": "//SPDX-License-Identifier: MIT\r\npragma solidity 0.8.11;\r\n\r\ncontract Question{\r\n\r\n    address public owner;\r\n    uint public id;\r\n    uint public votes;\r\n    uint public winner;\r\n    string public question;\r\n    string public option1;\r\n    string public option2;\r\n    bool public closed;\r\n    \r\n\r\n    uint private balance;\r\n    uint private votes1;\r\n    uint private votes2;\r\n\r\n    address[] public voters;\r\n\r\n    mapping(address => uint) public votedFor;\r\n\r\n    constructor(uint _id, string memory _question, string memory _option1, string memory _option2){\r\n        owner = msg.sender;\r\n        id = _id;\r\n        question =_question;\r\n        option1 =_option1;\r\n        option2 =_option2;\r\n        closed = false;\r\n    }\r\n\r\n    modifier onlyOwner(){\r\n        require(msg.sender == owner, \"Address must be owner\");\r\n        _;\r\n    }\r\n\r\n    function returnBalance() public view returns(uint){\r\n        return balance;\r\n    }\r\n\r\n    function checkVote(address _address) public view returns (uint){\r\n        return votedFor[_address];\r\n    }\r\n\r\n    function vote( uint _option, address _address, uint _fee, uint _bid) public payable {\r\n        require(votedFor[msg.sender] == 0,\"Already voted\");\r\n        votedFor[_address] = _option;\r\n        if(_option==1){\r\n            votes1++;\r\n        }\r\n        else{\r\n            votes2++;\r\n        }\r\n        votes++;\r\n        balance+= _fee + _bid;\r\n        voters.push(msg.sender);\r\n    }\r\n\r\n    function closeQuestion() public onlyOwner(){\r\n        closed = true;\r\n        getWinner();\r\n    }\r\n\r\n    function getWinner()internal{\r\n        winner = getVotes1()>getVotes2()?2:1;\r\n    }\r\n\r\n    function getVotes1() internal view returns(uint){\r\n        return votes1;\r\n    }\r\n\r\n    function getVotes2() internal view returns(uint){\r\n        return votes2;\r\n    }\r\n\r\n    function getBalance() internal view returns(uint){\r\n        return balance;\r\n    }\r\n    \r\n}",
  "sourcePath": "C:\\Users\\ralph\\OneDrive\\Desktop\\sol\\VotingApp\\app\\contracts\\Question.sol",
  "compiler": {
    "name": "solc",
    "version": "0.8.11+commit.d7f03943.Emscripten.clang"
  },
  "schemaVersion": "3.4.5",
  "updatedAt": "2022-03-21T12:13:48.513Z",
  "devdoc": {
    "kind": "dev",
    "methods": {},
    "version": 1
  },
  "userdoc": {
    "kind": "user",
    "methods": {},
    "version": 1
  }
}