{
  "contractName": "Question",
  "abi": [
    {
      "inputs": [
        {
          "internalType": "uint256",
          "name": "_id",
          "type": "uint256"
        },
        {
          "internalType": "string",
          "name": "_question",
          "type": "string"
        },
        {
          "internalType": "string",
          "name": "_option1",
          "type": "string"
        },
        {
          "internalType": "string",
          "name": "_option2",
          "type": "string"
        }
      ],
      "stateMutability": "nonpayable",
      "type": "constructor"
    },
    {
      "inputs": [],
      "name": "id",
      "outputs": [
        {
          "internalType": "uint256",
          "name": "",
          "type": "uint256"
        }
      ],
      "stateMutability": "view",
      "type": "function"
    },
    {
      "inputs": [],
      "name": "option1",
      "outputs": [
        {
          "internalType": "string",
          "name": "",
          "type": "string"
        }
      ],
      "stateMutability": "view",
      "type": "function"
    },
    {
      "inputs": [],
      "name": "option2",
      "outputs": [
        {
          "internalType": "string",
          "name": "",
          "type": "string"
        }
      ],
      "stateMutability": "view",
      "type": "function"
    },
    {
      "inputs": [],
      "name": "question",
      "outputs": [
        {
          "internalType": "string",
          "name": "",
          "type": "string"
        }
      ],
      "stateMutability": "view",
      "type": "function"
    },
    {
      "inputs": [
        {
          "internalType": "address",
          "name": "",
          "type": "address"
        }
      ],
      "name": "votedFor",
      "outputs": [
        {
          "internalType": "uint256",
          "name": "",
          "type": "uint256"
        }
      ],
      "stateMutability": "view",
      "type": "function"
    },
    {
      "inputs": [
        {
          "internalType": "uint256",
          "name": "",
          "type": "uint256"
        }
      ],
      "name": "voters",
      "outputs": [
        {
          "internalType": "address",
          "name": "",
          "type": "address"
        }
      ],
      "stateMutability": "view",
      "type": "function"
    },
    {
      "inputs": [
        {
          "internalType": "uint256",
          "name": "_option",
          "type": "uint256"
        }
      ],
      "name": "vote",
      "outputs": [],
      "stateMutability": "payable",
      "type": "function"
    }
  ],
  "bytecode": "0x60806040523480156200001157600080fd5b5060405162000c4e38038062000c4e83398181016040528101906200003791906200031b565b8360008190555082600190805190602001906200005692919062000093565b5081600290805190602001906200006f92919062000093565b5080600390805190602001906200008892919062000093565b50505050506200044f565b828054620000a19062000419565b90600052602060002090601f016020900481019282620000c5576000855562000111565b82601f10620000e057805160ff191683800117855562000111565b8280016001018555821562000111579182015b8281111562000110578251825591602001919060010190620000f3565b5b50905062000120919062000124565b5090565b5b808211156200013f57600081600090555060010162000125565b5090565b6000604051905090565b600080fd5b600080fd5b6000819050919050565b6200016c8162000157565b81146200017857600080fd5b50565b6000815190506200018c8162000161565b92915050565b600080fd5b600080fd5b6000601f19601f8301169050919050565b7f4e487b7100000000000000000000000000000000000000000000000000000000600052604160045260246000fd5b620001e7826200019c565b810181811067ffffffffffffffff82111715620002095762000208620001ad565b5b80604052505050565b60006200021e62000143565b90506200022c8282620001dc565b919050565b600067ffffffffffffffff8211156200024f576200024e620001ad565b5b6200025a826200019c565b9050602081019050919050565b60005b83811015620002875780820151818401526020810190506200026a565b8381111562000297576000848401525b50505050565b6000620002b4620002ae8462000231565b62000212565b905082815260208101848484011115620002d357620002d262000197565b5b620002e084828562000267565b509392505050565b600082601f8301126200030057620002ff62000192565b5b8151620003128482602086016200029d565b91505092915050565b600080600080608085870312156200033857620003376200014d565b5b600062000348878288016200017b565b945050602085015167ffffffffffffffff8111156200036c576200036b62000152565b5b6200037a87828801620002e8565b935050604085015167ffffffffffffffff8111156200039e576200039d62000152565b5b620003ac87828801620002e8565b925050606085015167ffffffffffffffff811115620003d057620003cf62000152565b5b620003de87828801620002e8565b91505092959194509250565b7f4e487b7100000000000000000000000000000000000000000000000000000000600052602260045260246000fd5b600060028204905060018216806200043257607f821691505b60208210811415620004495762000448620003ea565b5b50919050565b6107ef806200045f6000396000f3fe6080604052600436106100705760003560e01c8063ad69ab951161004e578063ad69ab95146100e7578063af640d0f14610112578063da58c7d91461013d578063f594f13f1461017a57610070565b80630121b93f146100755780633fad9ae01461009157806392d2e438146100bc575b600080fd5b61008f600480360381019061008a9190610525565b6101b7565b005b34801561009d57600080fd5b506100a66102e3565b6040516100b391906105eb565b60405180910390f35b3480156100c857600080fd5b506100d1610371565b6040516100de91906105eb565b60405180910390f35b3480156100f357600080fd5b506100fc6103ff565b60405161010991906105eb565b60405180910390f35b34801561011e57600080fd5b5061012761048d565b604051610134919061061c565b60405180910390f35b34801561014957600080fd5b50610164600480360381019061015f9190610525565b610493565b6040516101719190610678565b60405180910390f35b34801561018657600080fd5b506101a1600480360381019061019c91906106bf565b6104d2565b6040516101ae919061061c565b60405180910390f35b6000600560003373ffffffffffffffffffffffffffffffffffffffff1673ffffffffffffffffffffffffffffffffffffffff1681526020019081526020016000205414610239576040517f08c379a000000000000000000000000000000000000000000000000000000000815260040161023090610738565b60405180910390fd5b80600560003373ffffffffffffffffffffffffffffffffffffffff1673ffffffffffffffffffffffffffffffffffffffff168152602001908152602001600020819055506004339080600181540180825580915050600190039060005260206000200160009091909190916101000a81548173ffffffffffffffffffffffffffffffffffffffff021916908373ffffffffffffffffffffffffffffffffffffffff16021790555050565b600180546102f090610787565b80601f016020809104026020016040519081016040528092919081815260200182805461031c90610787565b80156103695780601f1061033e57610100808354040283529160200191610369565b820191906000526020600020905b81548152906001019060200180831161034c57829003601f168201915b505050505081565b6002805461037e90610787565b80601f01602080910402602001604051908101604052809291908181526020018280546103aa90610787565b80156103f75780601f106103cc576101008083540402835291602001916103f7565b820191906000526020600020905b8154815290600101906020018083116103da57829003601f168201915b505050505081565b6003805461040c90610787565b80601f016020809104026020016040519081016040528092919081815260200182805461043890610787565b80156104855780601f1061045a57610100808354040283529160200191610485565b820191906000526020600020905b81548152906001019060200180831161046857829003601f168201915b505050505081565b60005481565b600481815481106104a357600080fd5b906000526020600020016000915054906101000a900473ffffffffffffffffffffffffffffffffffffffff1681565b60056020528060005260406000206000915090505481565b600080fd5b6000819050919050565b610502816104ef565b811461050d57600080fd5b50565b60008135905061051f816104f9565b92915050565b60006020828403121561053b5761053a6104ea565b5b600061054984828501610510565b91505092915050565b600081519050919050565b600082825260208201905092915050565b60005b8381101561058c578082015181840152602081019050610571565b8381111561059b576000848401525b50505050565b6000601f19601f8301169050919050565b60006105bd82610552565b6105c7818561055d565b93506105d781856020860161056e565b6105e0816105a1565b840191505092915050565b6000602082019050818103600083015261060581846105b2565b905092915050565b610616816104ef565b82525050565b6000602082019050610631600083018461060d565b92915050565b600073ffffffffffffffffffffffffffffffffffffffff82169050919050565b600061066282610637565b9050919050565b61067281610657565b82525050565b600060208201905061068d6000830184610669565b92915050565b61069c81610657565b81146106a757600080fd5b50565b6000813590506106b981610693565b92915050565b6000602082840312156106d5576106d46104ea565b5b60006106e3848285016106aa565b91505092915050565b7f416c726561647920766f74656400000000000000000000000000000000000000600082015250565b6000610722600d8361055d565b915061072d826106ec565b602082019050919050565b6000602082019050818103600083015261075181610715565b9050919050565b7f4e487b7100000000000000000000000000000000000000000000000000000000600052602260045260246000fd5b6000600282049050600182168061079f57607f821691505b602082108114156107b3576107b2610758565b5b5091905056fea264697066735822122092639adaadc19ccea138de95fefc60e89ad50f26d1fb3173972ea4426ca8638a64736f6c634300080b0033",
  "immutableReferences": {},
  "source": "//SPDX-License-Identifier: MIT\r\npragma solidity 0.8.11;\r\n\r\ncontract Question{\r\n\r\n    uint public id;\r\n    string public question;\r\n    string public option1;\r\n    string public option2;\r\n\r\n    address[] public voters;\r\n    mapping(address => uint) public votedFor;\r\n\r\n    constructor(uint _id, string memory _question, string memory _option1, string memory _option2){\r\n        id = _id;\r\n        question =_question;\r\n        option1 =_option1;\r\n        option2 =_option2;\r\n    }\r\n\r\n\r\n    function vote( uint _option) public payable {\r\n        require(votedFor[msg.sender] == 0,\"Already voted\");\r\n        votedFor[msg.sender] = _option;\r\n        voters.push(msg.sender);\r\n    }\r\n    \r\n}",
  "sourcePath": "C:\\Users\\ralph\\OneDrive\\Desktop\\sol\\VotingApp\\app\\contracts\\Question.sol",
  "compiler": {
    "name": "solc",
    "version": "0.8.11+commit.d7f03943.Emscripten.clang"
  },
  "schemaVersion": "3.4.5",
  "updatedAt": "2022-03-20T12:02:57.979Z",
  "devdoc": {
    "kind": "dev",
    "methods": {},
    "version": 1
  },
  "userdoc": {
    "kind": "user",
    "methods": {},
    "version": 1
  }
}