{
  "contractName": "Question",
  "abi": [
    {
      "inputs": [
        {
          "internalType": "string",
          "name": "_question",
          "type": "string"
        },
        {
          "internalType": "string",
          "name": "_option1",
          "type": "string"
        },
        {
          "internalType": "string",
          "name": "_option2",
          "type": "string"
        }
      ],
      "stateMutability": "nonpayable",
      "type": "constructor"
    },
    {
      "inputs": [],
      "name": "option1",
      "outputs": [
        {
          "internalType": "string",
          "name": "",
          "type": "string"
        }
      ],
      "stateMutability": "view",
      "type": "function"
    },
    {
      "inputs": [],
      "name": "option2",
      "outputs": [
        {
          "internalType": "string",
          "name": "",
          "type": "string"
        }
      ],
      "stateMutability": "view",
      "type": "function"
    },
    {
      "inputs": [],
      "name": "question",
      "outputs": [
        {
          "internalType": "string",
          "name": "",
          "type": "string"
        }
      ],
      "stateMutability": "view",
      "type": "function"
    },
    {
      "inputs": [
        {
          "internalType": "address",
          "name": "",
          "type": "address"
        }
      ],
      "name": "votedFor",
      "outputs": [
        {
          "internalType": "uint256",
          "name": "",
          "type": "uint256"
        }
      ],
      "stateMutability": "view",
      "type": "function"
    },
    {
      "inputs": [
        {
          "internalType": "uint256",
          "name": "",
          "type": "uint256"
        }
      ],
      "name": "voters",
      "outputs": [
        {
          "internalType": "address",
          "name": "",
          "type": "address"
        }
      ],
      "stateMutability": "view",
      "type": "function"
    },
    {
      "inputs": [
        {
          "internalType": "uint256",
          "name": "_option",
          "type": "uint256"
        }
      ],
      "name": "vote",
      "outputs": [],
      "stateMutability": "payable",
      "type": "function"
    }
  ],
  "bytecode": "0x60806040523480156200001157600080fd5b5060405162000ba938038062000ba98339818101604052810190620000379190620002d8565b82600090805190602001906200004f9291906200008b565b508160019080519060200190620000689291906200008b565b508060029080519060200190620000819291906200008b565b50505050620003f6565b8280546200009990620003c0565b90600052602060002090601f016020900481019282620000bd576000855562000109565b82601f10620000d857805160ff191683800117855562000109565b8280016001018555821562000109579182015b8281111562000108578251825591602001919060010190620000eb565b5b5090506200011891906200011c565b5090565b5b80821115620001375760008160009055506001016200011d565b5090565b6000604051905090565b600080fd5b600080fd5b600080fd5b600080fd5b6000601f19601f8301169050919050565b7f4e487b7100000000000000000000000000000000000000000000000000000000600052604160045260246000fd5b620001a48262000159565b810181811067ffffffffffffffff82111715620001c657620001c56200016a565b5b80604052505050565b6000620001db6200013b565b9050620001e9828262000199565b919050565b600067ffffffffffffffff8211156200020c576200020b6200016a565b5b620002178262000159565b9050602081019050919050565b60005b838110156200024457808201518184015260208101905062000227565b8381111562000254576000848401525b50505050565b6000620002716200026b84620001ee565b620001cf565b90508281526020810184848401111562000290576200028f62000154565b5b6200029d84828562000224565b509392505050565b600082601f830112620002bd57620002bc6200014f565b5b8151620002cf8482602086016200025a565b91505092915050565b600080600060608486031215620002f457620002f362000145565b5b600084015167ffffffffffffffff8111156200031557620003146200014a565b5b6200032386828701620002a5565b935050602084015167ffffffffffffffff8111156200034757620003466200014a565b5b6200035586828701620002a5565b925050604084015167ffffffffffffffff8111156200037957620003786200014a565b5b6200038786828701620002a5565b9150509250925092565b7f4e487b7100000000000000000000000000000000000000000000000000000000600052602260045260246000fd5b60006002820490506001821680620003d957607f821691505b60208210811415620003f057620003ef62000391565b5b50919050565b6107a380620004066000396000f3fe6080604052600436106100555760003560e01c80630121b93f1461005a5780633fad9ae01461007657806392d2e438146100a1578063ad69ab95146100cc578063da58c7d9146100f7578063f594f13f14610134575b600080fd5b610074600480360381019061006f91906104d9565b610171565b005b34801561008257600080fd5b5061008b61029d565b604051610098919061059f565b60405180910390f35b3480156100ad57600080fd5b506100b661032b565b6040516100c3919061059f565b60405180910390f35b3480156100d857600080fd5b506100e16103b9565b6040516100ee919061059f565b60405180910390f35b34801561010357600080fd5b5061011e600480360381019061011991906104d9565b610447565b60405161012b9190610602565b60405180910390f35b34801561014057600080fd5b5061015b60048036038101906101569190610649565b610486565b6040516101689190610685565b60405180910390f35b6000600460003373ffffffffffffffffffffffffffffffffffffffff1673ffffffffffffffffffffffffffffffffffffffff16815260200190815260200160002054146101f3576040517f08c379a00000000000000000000000000000000000000000000000000000000081526004016101ea906106ec565b60405180910390fd5b80600460003373ffffffffffffffffffffffffffffffffffffffff1673ffffffffffffffffffffffffffffffffffffffff168152602001908152602001600020819055506003339080600181540180825580915050600190039060005260206000200160009091909190916101000a81548173ffffffffffffffffffffffffffffffffffffffff021916908373ffffffffffffffffffffffffffffffffffffffff16021790555050565b600080546102aa9061073b565b80601f01602080910402602001604051908101604052809291908181526020018280546102d69061073b565b80156103235780601f106102f857610100808354040283529160200191610323565b820191906000526020600020905b81548152906001019060200180831161030657829003601f168201915b505050505081565b600180546103389061073b565b80601f01602080910402602001604051908101604052809291908181526020018280546103649061073b565b80156103b15780601f10610386576101008083540402835291602001916103b1565b820191906000526020600020905b81548152906001019060200180831161039457829003601f168201915b505050505081565b600280546103c69061073b565b80601f01602080910402602001604051908101604052809291908181526020018280546103f29061073b565b801561043f5780601f106104145761010080835404028352916020019161043f565b820191906000526020600020905b81548152906001019060200180831161042257829003601f168201915b505050505081565b6003818154811061045757600080fd5b906000526020600020016000915054906101000a900473ffffffffffffffffffffffffffffffffffffffff1681565b60046020528060005260406000206000915090505481565b600080fd5b6000819050919050565b6104b6816104a3565b81146104c157600080fd5b50565b6000813590506104d3816104ad565b92915050565b6000602082840312156104ef576104ee61049e565b5b60006104fd848285016104c4565b91505092915050565b600081519050919050565b600082825260208201905092915050565b60005b83811015610540578082015181840152602081019050610525565b8381111561054f576000848401525b50505050565b6000601f19601f8301169050919050565b600061057182610506565b61057b8185610511565b935061058b818560208601610522565b61059481610555565b840191505092915050565b600060208201905081810360008301526105b98184610566565b905092915050565b600073ffffffffffffffffffffffffffffffffffffffff82169050919050565b60006105ec826105c1565b9050919050565b6105fc816105e1565b82525050565b600060208201905061061760008301846105f3565b92915050565b610626816105e1565b811461063157600080fd5b50565b6000813590506106438161061d565b92915050565b60006020828403121561065f5761065e61049e565b5b600061066d84828501610634565b91505092915050565b61067f816104a3565b82525050565b600060208201905061069a6000830184610676565b92915050565b7f416c726561647920766f74656400000000000000000000000000000000000000600082015250565b60006106d6600d83610511565b91506106e1826106a0565b602082019050919050565b60006020820190508181036000830152610705816106c9565b9050919050565b7f4e487b7100000000000000000000000000000000000000000000000000000000600052602260045260246000fd5b6000600282049050600182168061075357607f821691505b602082108114156107675761076661070c565b5b5091905056fea264697066735822122065ea7ff30660d8c2bc66fe33a939fce2f1d6ae039e463a8088a67d6e37531bdb64736f6c634300080b0033",
  "immutableReferences": {},
  "source": "//SPDX-License-Identifier: MIT\r\npragma solidity 0.8.11;\r\n\r\ncontract Question{\r\n\r\n    string public question;\r\n    string public option1;\r\n    string public option2;\r\n\r\n    address[] public voters;\r\n    mapping(address => uint) public votedFor;\r\n\r\n    constructor(string memory _question, string memory _option1, string memory _option2){\r\n        question =_question;\r\n        option1 =_option1;\r\n        option2 =_option2;\r\n    }\r\n\r\n\r\n    function vote( uint _option) public payable {\r\n        require(votedFor[msg.sender] == 0,\"Already voted\");\r\n        votedFor[msg.sender] = _option;\r\n        voters.push(msg.sender);\r\n    }\r\n    \r\n}",
  "sourcePath": "C:\\Users\\ralph\\OneDrive\\Desktop\\sol\\VotingApp\\app\\contracts\\Question.sol",
  "compiler": {
    "name": "solc",
    "version": "0.8.11+commit.d7f03943.Emscripten.clang"
  },
  "schemaVersion": "3.4.5",
  "updatedAt": "2022-03-20T10:17:45.966Z",
  "devdoc": {
    "kind": "dev",
    "methods": {},
    "version": 1
  },
  "userdoc": {
    "kind": "user",
    "methods": {},
    "version": 1
  }
}