{
  "contractName": "Question",
  "abi": [
    {
      "inputs": [
        {
          "internalType": "uint256",
          "name": "_id",
          "type": "uint256"
        },
        {
          "internalType": "string",
          "name": "_question",
          "type": "string"
        },
        {
          "internalType": "string",
          "name": "_option1",
          "type": "string"
        },
        {
          "internalType": "string",
          "name": "_option2",
          "type": "string"
        }
      ],
      "stateMutability": "nonpayable",
      "type": "constructor"
    },
    {
      "inputs": [],
      "name": "closed",
      "outputs": [
        {
          "internalType": "bool",
          "name": "",
          "type": "bool"
        }
      ],
      "stateMutability": "view",
      "type": "function"
    },
    {
      "inputs": [],
      "name": "id",
      "outputs": [
        {
          "internalType": "uint256",
          "name": "",
          "type": "uint256"
        }
      ],
      "stateMutability": "view",
      "type": "function"
    },
    {
      "inputs": [],
      "name": "option1",
      "outputs": [
        {
          "internalType": "string",
          "name": "",
          "type": "string"
        }
      ],
      "stateMutability": "view",
      "type": "function"
    },
    {
      "inputs": [],
      "name": "option2",
      "outputs": [
        {
          "internalType": "string",
          "name": "",
          "type": "string"
        }
      ],
      "stateMutability": "view",
      "type": "function"
    },
    {
      "inputs": [],
      "name": "owner",
      "outputs": [
        {
          "internalType": "address",
          "name": "",
          "type": "address"
        }
      ],
      "stateMutability": "view",
      "type": "function"
    },
    {
      "inputs": [],
      "name": "question",
      "outputs": [
        {
          "internalType": "string",
          "name": "",
          "type": "string"
        }
      ],
      "stateMutability": "view",
      "type": "function"
    },
    {
      "inputs": [
        {
          "internalType": "address",
          "name": "",
          "type": "address"
        }
      ],
      "name": "votedFor",
      "outputs": [
        {
          "internalType": "uint256",
          "name": "",
          "type": "uint256"
        }
      ],
      "stateMutability": "view",
      "type": "function"
    },
    {
      "inputs": [
        {
          "internalType": "uint256",
          "name": "",
          "type": "uint256"
        }
      ],
      "name": "voters",
      "outputs": [
        {
          "internalType": "address",
          "name": "",
          "type": "address"
        }
      ],
      "stateMutability": "view",
      "type": "function"
    },
    {
      "inputs": [],
      "name": "votes",
      "outputs": [
        {
          "internalType": "uint256",
          "name": "",
          "type": "uint256"
        }
      ],
      "stateMutability": "view",
      "type": "function"
    },
    {
      "inputs": [],
      "name": "winner",
      "outputs": [
        {
          "internalType": "uint256",
          "name": "",
          "type": "uint256"
        }
      ],
      "stateMutability": "view",
      "type": "function"
    },
    {
      "inputs": [],
      "name": "returnBalance",
      "outputs": [
        {
          "internalType": "uint256",
          "name": "",
          "type": "uint256"
        }
      ],
      "stateMutability": "view",
      "type": "function"
    },
    {
      "inputs": [
        {
          "internalType": "address",
          "name": "_address",
          "type": "address"
        }
      ],
      "name": "checkVote",
      "outputs": [
        {
          "internalType": "uint256",
          "name": "",
          "type": "uint256"
        }
      ],
      "stateMutability": "view",
      "type": "function"
    },
    {
      "inputs": [
        {
          "internalType": "uint256",
          "name": "_option",
          "type": "uint256"
        },
        {
          "internalType": "address",
          "name": "_address",
          "type": "address"
        }
      ],
      "name": "vote",
      "outputs": [],
      "stateMutability": "payable",
      "type": "function"
    },
    {
      "inputs": [],
      "name": "closeQuestion",
      "outputs": [],
      "stateMutability": "nonpayable",
      "type": "function"
    }
  ],
  "bytecode": "0x60806040523480156200001157600080fd5b506040516200116e3803806200116e833981810160405281019062000037919062000376565b336000806101000a81548173ffffffffffffffffffffffffffffffffffffffff021916908373ffffffffffffffffffffffffffffffffffffffff16021790555083600181905550826004908051906020019062000096929190620000ee565b508160059080519060200190620000af929190620000ee565b508060069080519060200190620000c8929190620000ee565b506000600760006101000a81548160ff02191690831515021790555050505050620004aa565b828054620000fc9062000474565b90600052602060002090601f0160209004810192826200012057600085556200016c565b82601f106200013b57805160ff19168380011785556200016c565b828001600101855582156200016c579182015b828111156200016b5782518255916020019190600101906200014e565b5b5090506200017b91906200017f565b5090565b5b808211156200019a57600081600090555060010162000180565b5090565b6000604051905090565b600080fd5b600080fd5b6000819050919050565b620001c781620001b2565b8114620001d357600080fd5b50565b600081519050620001e781620001bc565b92915050565b600080fd5b600080fd5b6000601f19601f8301169050919050565b7f4e487b7100000000000000000000000000000000000000000000000000000000600052604160045260246000fd5b6200024282620001f7565b810181811067ffffffffffffffff8211171562000264576200026362000208565b5b80604052505050565b6000620002796200019e565b905062000287828262000237565b919050565b600067ffffffffffffffff821115620002aa57620002a962000208565b5b620002b582620001f7565b9050602081019050919050565b60005b83811015620002e2578082015181840152602081019050620002c5565b83811115620002f2576000848401525b50505050565b60006200030f62000309846200028c565b6200026d565b9050828152602081018484840111156200032e576200032d620001f2565b5b6200033b848285620002c2565b509392505050565b600082601f8301126200035b576200035a620001ed565b5b81516200036d848260208601620002f8565b91505092915050565b60008060008060808587031215620003935762000392620001a8565b5b6000620003a387828801620001d6565b945050602085015167ffffffffffffffff811115620003c757620003c6620001ad565b5b620003d58782880162000343565b935050604085015167ffffffffffffffff811115620003f957620003f8620001ad565b5b620004078782880162000343565b925050606085015167ffffffffffffffff8111156200042b576200042a620001ad565b5b620004398782880162000343565b91505092959194509250565b7f4e487b7100000000000000000000000000000000000000000000000000000000600052602260045260246000fd5b600060028204905060018216806200048d57607f821691505b60208210811415620004a457620004a362000445565b5b50919050565b610cb480620004ba6000396000f3fe6080604052600436106100dd5760003560e01c806392d2e4381161007f578063da58c7d911610059578063da58c7d91461027f578063dfbf53ae146102bc578063e168c3ec146102e7578063f594f13f14610312576100dd565b806392d2e438146101fe578063ad69ab9514610229578063af640d0f14610254576100dd565b80635a0857d4116100bb5780635a0857d4146101545780636143bb03146101915780638da5cb5b146101a8578063900551a8146101d3576100dd565b806302d947ef146100e25780633fad9ae0146100fe578063597e1fb514610129575b600080fd5b6100fc60048036038101906100f791906108ee565b61034f565b005b34801561010a57600080fd5b506101136104d3565b60405161012091906109c7565b60405180910390f35b34801561013557600080fd5b5061013e610561565b60405161014b9190610a04565b60405180910390f35b34801561016057600080fd5b5061017b60048036038101906101769190610a1f565b610574565b6040516101889190610a5b565b60405180910390f35b34801561019d57600080fd5b506101a66105bd565b005b3480156101b457600080fd5b506101bd610690565b6040516101ca9190610a85565b60405180910390f35b3480156101df57600080fd5b506101e86106b4565b6040516101f59190610a5b565b60405180910390f35b34801561020a57600080fd5b506102136106bc565b60405161022091906109c7565b60405180910390f35b34801561023557600080fd5b5061023e61074a565b60405161024b91906109c7565b60405180910390f35b34801561026057600080fd5b506102696107d8565b6040516102769190610a5b565b60405180910390f35b34801561028b57600080fd5b506102a660048036038101906102a19190610aa0565b6107de565b6040516102b39190610a85565b60405180910390f35b3480156102c857600080fd5b506102d161081d565b6040516102de9190610a5b565b60405180910390f35b3480156102f357600080fd5b506102fc610823565b6040516103099190610a5b565b60405180910390f35b34801561031e57600080fd5b5061033960048036038101906103349190610a1f565b610829565b6040516103469190610a5b565b60405180910390f35b6000600b60003373ffffffffffffffffffffffffffffffffffffffff1673ffffffffffffffffffffffffffffffffffffffff16815260200190815260200160002054146103d1576040517f08c379a00000000000000000000000000000000000000000000000000000000081526004016103c890610b19565b60405180910390fd5b81600b60008373ffffffffffffffffffffffffffffffffffffffff1673ffffffffffffffffffffffffffffffffffffffff16815260200190815260200160002081905550600182141561043b576008600081548092919061043190610b68565b9190505550610454565b6009600081548092919061044e90610b68565b91905055505b6002600081548092919061046790610b68565b9190505550600a339080600181540180825580915050600190039060005260206000200160009091909190916101000a81548173ffffffffffffffffffffffffffffffffffffffff021916908373ffffffffffffffffffffffffffffffffffffffff1602179055505050565b600480546104e090610be0565b80601f016020809104026020016040519081016040528092919081815260200182805461050c90610be0565b80156105595780601f1061052e57610100808354040283529160200191610559565b820191906000526020600020905b81548152906001019060200180831161053c57829003601f168201915b505050505081565b600760009054906101000a900460ff1681565b6000600b60008373ffffffffffffffffffffffffffffffffffffffff1673ffffffffffffffffffffffffffffffffffffffff168152602001908152602001600020549050919050565b60008054906101000a900473ffffffffffffffffffffffffffffffffffffffff1673ffffffffffffffffffffffffffffffffffffffff163373ffffffffffffffffffffffffffffffffffffffff161461064b576040517f08c379a000000000000000000000000000000000000000000000000000000000815260040161064290610c5e565b60405180910390fd5b6001600760006101000a81548160ff02191690831515021790555061066e610841565b61067661084b565b11610682576001610685565b60025b60ff16600381905550565b60008054906101000a900473ffffffffffffffffffffffffffffffffffffffff1681565b600047905090565b600580546106c990610be0565b80601f01602080910402602001604051908101604052809291908181526020018280546106f590610be0565b80156107425780601f1061071757610100808354040283529160200191610742565b820191906000526020600020905b81548152906001019060200180831161072557829003601f168201915b505050505081565b6006805461075790610be0565b80601f016020809104026020016040519081016040528092919081815260200182805461078390610be0565b80156107d05780601f106107a5576101008083540402835291602001916107d0565b820191906000526020600020905b8154815290600101906020018083116107b357829003601f168201915b505050505081565b60015481565b600a81815481106107ee57600080fd5b906000526020600020016000915054906101000a900473ffffffffffffffffffffffffffffffffffffffff1681565b60035481565b60025481565b600b6020528060005260406000206000915090505481565b6000600954905090565b6000600854905090565b600080fd5b6000819050919050565b61086d8161085a565b811461087857600080fd5b50565b60008135905061088a81610864565b92915050565b600073ffffffffffffffffffffffffffffffffffffffff82169050919050565b60006108bb82610890565b9050919050565b6108cb816108b0565b81146108d657600080fd5b50565b6000813590506108e8816108c2565b92915050565b6000806040838503121561090557610904610855565b5b60006109138582860161087b565b9250506020610924858286016108d9565b9150509250929050565b600081519050919050565b600082825260208201905092915050565b60005b8381101561096857808201518184015260208101905061094d565b83811115610977576000848401525b50505050565b6000601f19601f8301169050919050565b60006109998261092e565b6109a38185610939565b93506109b381856020860161094a565b6109bc8161097d565b840191505092915050565b600060208201905081810360008301526109e1818461098e565b905092915050565b60008115159050919050565b6109fe816109e9565b82525050565b6000602082019050610a1960008301846109f5565b92915050565b600060208284031215610a3557610a34610855565b5b6000610a43848285016108d9565b91505092915050565b610a558161085a565b82525050565b6000602082019050610a706000830184610a4c565b92915050565b610a7f816108b0565b82525050565b6000602082019050610a9a6000830184610a76565b92915050565b600060208284031215610ab657610ab5610855565b5b6000610ac48482850161087b565b91505092915050565b7f416c726561647920766f74656400000000000000000000000000000000000000600082015250565b6000610b03600d83610939565b9150610b0e82610acd565b602082019050919050565b60006020820190508181036000830152610b3281610af6565b9050919050565b7f4e487b7100000000000000000000000000000000000000000000000000000000600052601160045260246000fd5b6000610b738261085a565b91507fffffffffffffffffffffffffffffffffffffffffffffffffffffffffffffffff821415610ba657610ba5610b39565b5b600182019050919050565b7f4e487b7100000000000000000000000000000000000000000000000000000000600052602260045260246000fd5b60006002820490506001821680610bf857607f821691505b60208210811415610c0c57610c0b610bb1565b5b50919050565b7f41646472657373206d757374206265206f776e65720000000000000000000000600082015250565b6000610c48601583610939565b9150610c5382610c12565b602082019050919050565b60006020820190508181036000830152610c7781610c3b565b905091905056fea26469706673582212209594a4abcbaac195bfe538e8cb8412235bd85e9d238680ab20a32e9a7400691e64736f6c634300080b0033",
  "immutableReferences": {},
  "source": "//SPDX-License-Identifier: MIT\r\npragma solidity 0.8.11;\r\n\r\ncontract Question{\r\n\r\n    address public owner;\r\n    uint public id;\r\n    uint public votes;\r\n    uint public winner;\r\n    string public question;\r\n    string public option1;\r\n    string public option2;\r\n    bool public closed;\r\n    \r\n\r\n    uint private votes1;\r\n    uint private votes2;\r\n\r\n    address[] public voters;\r\n\r\n    mapping(address => uint) public votedFor;\r\n\r\n    constructor(uint _id, string memory _question, string memory _option1, string memory _option2){\r\n        owner = msg.sender;\r\n        id = _id;\r\n        question =_question;\r\n        option1 =_option1;\r\n        option2 =_option2;\r\n        closed = false;\r\n    }\r\n\r\n    modifier onlyOwner(){\r\n        require(msg.sender == owner, \"Address must be owner\");\r\n        _;\r\n    }\r\n\r\n    function returnBalance() public view returns(uint){\r\n        return address(this).balance;\r\n    }\r\n\r\n    function checkVote(address _address) public view returns (uint){\r\n        return votedFor[_address];\r\n    }\r\n\r\n    function vote( uint _option, address _address) public payable {\r\n        require(votedFor[msg.sender] == 0,\"Already voted\");\r\n        votedFor[_address] = _option;\r\n        if(_option==1){\r\n            votes1++;\r\n        }\r\n        else{\r\n            votes2++;\r\n        }\r\n        votes++;\r\n        voters.push(msg.sender);\r\n    }\r\n\r\n    function closeQuestion() public onlyOwner(){\r\n        closed = true;\r\n        winner = getVotes1()>getVotes2()?2:1;\r\n    }\r\n\r\n    function getVotes1() internal view returns(uint){\r\n        return votes1;\r\n    }\r\n\r\n    function getVotes2() internal view returns(uint){\r\n        return votes2;\r\n    }\r\n    \r\n}",
  "sourcePath": "C:\\Users\\ralph\\OneDrive\\Desktop\\sol\\VotingApp\\app\\contracts\\Question.sol",
  "compiler": {
    "name": "solc",
    "version": "0.8.11+commit.d7f03943.Emscripten.clang"
  },
  "schemaVersion": "3.4.5",
  "updatedAt": "2022-03-21T10:52:08.145Z",
  "devdoc": {
    "kind": "dev",
    "methods": {},
    "version": 1
  },
  "userdoc": {
    "kind": "user",
    "methods": {},
    "version": 1
  }
}