{
  "contractName": "VotingGame",
  "abi": [
    {
      "inputs": [],
      "stateMutability": "nonpayable",
      "type": "constructor"
    },
    {
      "inputs": [],
      "name": "bid",
      "outputs": [
        {
          "internalType": "uint256",
          "name": "",
          "type": "uint256"
        }
      ],
      "stateMutability": "view",
      "type": "function",
      "constant": true
    },
    {
      "inputs": [
        {
          "internalType": "address",
          "name": "",
          "type": "address"
        }
      ],
      "name": "bidders",
      "outputs": [
        {
          "internalType": "uint256",
          "name": "",
          "type": "uint256"
        }
      ],
      "stateMutability": "view",
      "type": "function",
      "constant": true
    },
    {
      "inputs": [],
      "name": "countQuestion",
      "outputs": [
        {
          "internalType": "uint256",
          "name": "",
          "type": "uint256"
        }
      ],
      "stateMutability": "view",
      "type": "function",
      "constant": true
    },
    {
      "inputs": [],
      "name": "fee",
      "outputs": [
        {
          "internalType": "uint256",
          "name": "",
          "type": "uint256"
        }
      ],
      "stateMutability": "view",
      "type": "function",
      "constant": true
    },
    {
      "inputs": [],
      "name": "owner",
      "outputs": [
        {
          "internalType": "address payable",
          "name": "",
          "type": "address"
        }
      ],
      "stateMutability": "view",
      "type": "function",
      "constant": true
    },
    {
      "inputs": [
        {
          "internalType": "uint256",
          "name": "",
          "type": "uint256"
        }
      ],
      "name": "questions",
      "outputs": [
        {
          "internalType": "contract Question",
          "name": "",
          "type": "address"
        }
      ],
      "stateMutability": "view",
      "type": "function",
      "constant": true
    },
    {
      "inputs": [
        {
          "internalType": "uint256",
          "name": "_question",
          "type": "uint256"
        },
        {
          "internalType": "uint256",
          "name": "_option",
          "type": "uint256"
        }
      ],
      "name": "vote",
      "outputs": [],
      "stateMutability": "payable",
      "type": "function",
      "payable": true
    },
    {
      "inputs": [
        {
          "internalType": "uint256",
          "name": "_id",
          "type": "uint256"
        }
      ],
      "name": "closeQuestion",
      "outputs": [],
      "stateMutability": "nonpayable",
      "type": "function"
    },
    {
      "inputs": [],
      "name": "getQuestions",
      "outputs": [
        {
          "internalType": "contract Question[]",
          "name": "",
          "type": "address[]"
        }
      ],
      "stateMutability": "view",
      "type": "function",
      "constant": true
    },
    {
      "inputs": [
        {
          "internalType": "string",
          "name": "_question",
          "type": "string"
        },
        {
          "internalType": "string",
          "name": "_opt1",
          "type": "string"
        },
        {
          "internalType": "string",
          "name": "_opt2",
          "type": "string"
        }
      ],
      "name": "createQuestion",
      "outputs": [],
      "stateMutability": "nonpayable",
      "type": "function"
    },
    {
      "inputs": [
        {
          "internalType": "uint256",
          "name": "_fee",
          "type": "uint256"
        }
      ],
      "name": "changeFee",
      "outputs": [],
      "stateMutability": "nonpayable",
      "type": "function"
    },
    {
      "inputs": [
        {
          "internalType": "uint256",
          "name": "_bid",
          "type": "uint256"
        }
      ],
      "name": "changeBid",
      "outputs": [],
      "stateMutability": "nonpayable",
      "type": "function"
    },
    {
      "inputs": [],
      "name": "withdraw",
      "outputs": [],
      "stateMutability": "nonpayable",
      "type": "function"
    }
  ],
  "bytecode": "0x608060405234801561001057600080fd5b50336000806101000a81548173ffffffffffffffffffffffffffffffffffffffff021916908373ffffffffffffffffffffffffffffffffffffffff16021790555066b1a2bc2ec50000600181905550670de0b6b3a76400006002819055506125288061007d6000396000f3fe608060405260043610620000d45760003560e01c80638da5cb5b116200008b578063c09f32e81162000061578063c09f32e81462000273578063ddca3f4314620002a1578063e93fa19c14620002d1578063fcc8f79314620002ff57620000d4565b80638da5cb5b14620001f357806397221ab71462000223578063b384abef146200025357620000d4565b80631998aeef14620000d957806331b1b97814620001095780633ccfd60b146200014d5780634c05a51b146200016757806356fd3a5114620001975780636a1db1bf14620001c5575b600080fd5b348015620000e657600080fd5b50620000f162000343565b60405162000100919062000a83565b60405180910390f35b3480156200011657600080fd5b506200013560048036038101906200012f919062000ae5565b62000349565b60405162000144919062000ba2565b60405180910390f35b3480156200015a57600080fd5b506200016562000389565b005b3480156200017457600080fd5b506200017f620004ca565b6040516200018e919062000a83565b60405180910390f35b348015620001a457600080fd5b50620001c36004803603810190620001bd919062000ae5565b620004d0565b005b348015620001d257600080fd5b50620001f16004803603810190620001eb919062000ae5565b6200056b565b005b3480156200020057600080fd5b506200020b62000606565b6040516200021a919062000be4565b60405180910390f35b3480156200023057600080fd5b506200023b6200062a565b6040516200024a919062000ccf565b60405180910390f35b6200027160048036038101906200026b919062000cf3565b620006ba565b005b3480156200028057600080fd5b506200029f600480360381019062000299919062000ae5565b620007d1565b005b348015620002ae57600080fd5b50620002b962000877565b604051620002c8919062000a83565b60405180910390f35b348015620002de57600080fd5b50620002fd6004803603810190620002f7919062000e9c565b6200087d565b005b3480156200030c57600080fd5b506200032b600480360381019062000325919062000f9a565b620009d6565b6040516200033a919062000a83565b60405180910390f35b60025481565b600581815481106200035a57600080fd5b906000526020600020016000915054906101000a900473ffffffffffffffffffffffffffffffffffffffff1681565b60008054906101000a900473ffffffffffffffffffffffffffffffffffffffff1673ffffffffffffffffffffffffffffffffffffffff163373ffffffffffffffffffffffffffffffffffffffff16146200041a576040517f08c379a000000000000000000000000000000000000000000000000000000000815260040162000411906200102d565b60405180910390fd5b6000471162000460576040517f08c379a000000000000000000000000000000000000000000000000000000000815260040162000457906200109f565b60405180910390fd5b60008054906101000a900473ffffffffffffffffffffffffffffffffffffffff1673ffffffffffffffffffffffffffffffffffffffff166108fc479081150290604051600060405180830381858888f19350505050158015620004c7573d6000803e3d6000fd5b50565b60035481565b60008054906101000a900473ffffffffffffffffffffffffffffffffffffffff1673ffffffffffffffffffffffffffffffffffffffff163373ffffffffffffffffffffffffffffffffffffffff161462000561576040517f08c379a000000000000000000000000000000000000000000000000000000000815260040162000558906200102d565b60405180910390fd5b8060028190555050565b60008054906101000a900473ffffffffffffffffffffffffffffffffffffffff1673ffffffffffffffffffffffffffffffffffffffff163373ffffffffffffffffffffffffffffffffffffffff1614620005fc576040517f08c379a0000000000000000000000000000000000000000000000000000000008152600401620005f3906200102d565b60405180910390fd5b8060018190555050565b60008054906101000a900473ffffffffffffffffffffffffffffffffffffffff1681565b60606005805480602002602001604051908101604052809291908181526020018280548015620006b057602002820191906000526020600020905b8160009054906101000a900473ffffffffffffffffffffffffffffffffffffffff1673ffffffffffffffffffffffffffffffffffffffff168152602001906001019080831162000665575b5050505050905090565b600254600154620006cc9190620010f0565b34101562000711576040517f08c379a00000000000000000000000000000000000000000000000000000000081526004016200070890620011c3565b60405180910390fd5b60058281548110620007285762000727620011e5565b5b9060005260206000200160009054906101000a900473ffffffffffffffffffffffffffffffffffffffff1673ffffffffffffffffffffffffffffffffffffffff166302d947ef82336040518363ffffffff1660e01b81526004016200078f92919062001225565b600060405180830381600087803b158015620007aa57600080fd5b505af1158015620007bf573d6000803e3d6000fd5b50505050620007cd620009ee565b5050565b60058181548110620007e857620007e7620011e5565b5b9060005260206000200160009054906101000a900473ffffffffffffffffffffffffffffffffffffffff1673ffffffffffffffffffffffffffffffffffffffff16636143bb036040518163ffffffff1660e01b8152600401600060405180830381600087803b1580156200085b57600080fd5b505af115801562000870573d6000803e3d6000fd5b5050505050565b60015481565b60008054906101000a900473ffffffffffffffffffffffffffffffffffffffff1673ffffffffffffffffffffffffffffffffffffffff163373ffffffffffffffffffffffffffffffffffffffff16146200090e576040517f08c379a000000000000000000000000000000000000000000000000000000000815260040162000905906200102d565b60405180910390fd5b6000600354848484604051620009249062000a5a565b620009339493929190620012d4565b604051809103906000f08015801562000950573d6000803e3d6000fd5b5090506005819080600181540180825580915050600190039060005260206000200160009091909190916101000a81548173ffffffffffffffffffffffffffffffffffffffff021916908373ffffffffffffffffffffffffffffffffffffffff16021790555060036000815480929190620009cb9062001336565b919050555050505050565b60046020528060005260406000206000915090505481565b60008054906101000a900473ffffffffffffffffffffffffffffffffffffffff1673ffffffffffffffffffffffffffffffffffffffff166108fc6001549081150290604051600060405180830381858888f1935050505015801562000a57573d6000803e3d6000fd5b50565b61116e806200138583390190565b6000819050919050565b62000a7d8162000a68565b82525050565b600060208201905062000a9a600083018462000a72565b92915050565b6000604051905090565b600080fd5b600080fd5b62000abf8162000a68565b811462000acb57600080fd5b50565b60008135905062000adf8162000ab4565b92915050565b60006020828403121562000afe5762000afd62000aaa565b5b600062000b0e8482850162000ace565b91505092915050565b600073ffffffffffffffffffffffffffffffffffffffff82169050919050565b6000819050919050565b600062000b6262000b5c62000b568462000b17565b62000b37565b62000b17565b9050919050565b600062000b768262000b41565b9050919050565b600062000b8a8262000b69565b9050919050565b62000b9c8162000b7d565b82525050565b600060208201905062000bb9600083018462000b91565b92915050565b600062000bcc8262000b17565b9050919050565b62000bde8162000bbf565b82525050565b600060208201905062000bfb600083018462000bd3565b92915050565b600081519050919050565b600082825260208201905092915050565b6000819050602082019050919050565b62000c388162000b7d565b82525050565b600062000c4c838362000c2d565b60208301905092915050565b6000602082019050919050565b600062000c728262000c01565b62000c7e818562000c0c565b935062000c8b8362000c1d565b8060005b8381101562000cc257815162000ca6888262000c3e565b975062000cb38362000c58565b92505060018101905062000c8f565b5085935050505092915050565b6000602082019050818103600083015262000ceb818462000c65565b905092915050565b6000806040838503121562000d0d5762000d0c62000aaa565b5b600062000d1d8582860162000ace565b925050602062000d308582860162000ace565b9150509250929050565b600080fd5b600080fd5b6000601f19601f8301169050919050565b7f4e487b7100000000000000000000000000000000000000000000000000000000600052604160045260246000fd5b62000d8f8262000d44565b810181811067ffffffffffffffff8211171562000db15762000db062000d55565b5b80604052505050565b600062000dc662000aa0565b905062000dd4828262000d84565b919050565b600067ffffffffffffffff82111562000df75762000df662000d55565b5b62000e028262000d44565b9050602081019050919050565b82818337600083830152505050565b600062000e3562000e2f8462000dd9565b62000dba565b90508281526020810184848401111562000e545762000e5362000d3f565b5b62000e6184828562000e0f565b509392505050565b600082601f83011262000e815762000e8062000d3a565b5b813562000e9384826020860162000e1e565b91505092915050565b60008060006060848603121562000eb85762000eb762000aaa565b5b600084013567ffffffffffffffff81111562000ed95762000ed862000aaf565b5b62000ee78682870162000e69565b935050602084013567ffffffffffffffff81111562000f0b5762000f0a62000aaf565b5b62000f198682870162000e69565b925050604084013567ffffffffffffffff81111562000f3d5762000f3c62000aaf565b5b62000f4b8682870162000e69565b9150509250925092565b600062000f628262000b17565b9050919050565b62000f748162000f55565b811462000f8057600080fd5b50565b60008135905062000f948162000f69565b92915050565b60006020828403121562000fb35762000fb262000aaa565b5b600062000fc38482850162000f83565b91505092915050565b600082825260208201905092915050565b7f41646472657373206d757374206265206f776e65720000000000000000000000600082015250565b60006200101560158362000fcc565b9150620010228262000fdd565b602082019050919050565b60006020820190508181036000830152620010488162001006565b9050919050565b7f42616c616e636520697320656d70747900000000000000000000000000000000600082015250565b60006200108760108362000fcc565b915062001094826200104f565b602082019050919050565b60006020820190508181036000830152620010ba8162001078565b9050919050565b7f4e487b7100000000000000000000000000000000000000000000000000000000600052601160045260246000fd5b6000620010fd8262000a68565b91506200110a8362000a68565b9250827fffffffffffffffffffffffffffffffffffffffffffffffffffffffffffffffff03821115620011425762001141620010c1565b5b828201905092915050565b7f56616c7565206d7573742062652067726561746572207468616e20626f74682060008201527f62696420616e6420666565000000000000000000000000000000000000000000602082015250565b6000620011ab602b8362000fcc565b9150620011b8826200114d565b604082019050919050565b60006020820190508181036000830152620011de816200119c565b9050919050565b7f4e487b7100000000000000000000000000000000000000000000000000000000600052603260045260246000fd5b6200121f8162000f55565b82525050565b60006040820190506200123c600083018562000a72565b6200124b602083018462001214565b9392505050565b600081519050919050565b60005b838110156200127d57808201518184015260208101905062001260565b838111156200128d576000848401525b50505050565b6000620012a08262001252565b620012ac818562000fcc565b9350620012be8185602086016200125d565b620012c98162000d44565b840191505092915050565b6000608082019050620012eb600083018762000a72565b8181036020830152620012ff818662001293565b9050818103604083015262001315818562001293565b905081810360608301526200132b818462001293565b905095945050505050565b6000620013438262000a68565b91507fffffffffffffffffffffffffffffffffffffffffffffffffffffffffffffffff821415620013795762001378620010c1565b5b60018201905091905056fe60806040523480156200001157600080fd5b506040516200116e3803806200116e833981810160405281019062000037919062000376565b336000806101000a81548173ffffffffffffffffffffffffffffffffffffffff021916908373ffffffffffffffffffffffffffffffffffffffff16021790555083600181905550826004908051906020019062000096929190620000ee565b508160059080519060200190620000af929190620000ee565b508060069080519060200190620000c8929190620000ee565b506000600760006101000a81548160ff02191690831515021790555050505050620004aa565b828054620000fc9062000474565b90600052602060002090601f0160209004810192826200012057600085556200016c565b82601f106200013b57805160ff19168380011785556200016c565b828001600101855582156200016c579182015b828111156200016b5782518255916020019190600101906200014e565b5b5090506200017b91906200017f565b5090565b5b808211156200019a57600081600090555060010162000180565b5090565b6000604051905090565b600080fd5b600080fd5b6000819050919050565b620001c781620001b2565b8114620001d357600080fd5b50565b600081519050620001e781620001bc565b92915050565b600080fd5b600080fd5b6000601f19601f8301169050919050565b7f4e487b7100000000000000000000000000000000000000000000000000000000600052604160045260246000fd5b6200024282620001f7565b810181811067ffffffffffffffff8211171562000264576200026362000208565b5b80604052505050565b6000620002796200019e565b905062000287828262000237565b919050565b600067ffffffffffffffff821115620002aa57620002a962000208565b5b620002b582620001f7565b9050602081019050919050565b60005b83811015620002e2578082015181840152602081019050620002c5565b83811115620002f2576000848401525b50505050565b60006200030f62000309846200028c565b6200026d565b9050828152602081018484840111156200032e576200032d620001f2565b5b6200033b848285620002c2565b509392505050565b600082601f8301126200035b576200035a620001ed565b5b81516200036d848260208601620002f8565b91505092915050565b60008060008060808587031215620003935762000392620001a8565b5b6000620003a387828801620001d6565b945050602085015167ffffffffffffffff811115620003c757620003c6620001ad565b5b620003d58782880162000343565b935050604085015167ffffffffffffffff811115620003f957620003f8620001ad565b5b620004078782880162000343565b925050606085015167ffffffffffffffff8111156200042b576200042a620001ad565b5b620004398782880162000343565b91505092959194509250565b7f4e487b7100000000000000000000000000000000000000000000000000000000600052602260045260246000fd5b600060028204905060018216806200048d57607f821691505b60208210811415620004a457620004a362000445565b5b50919050565b610cb480620004ba6000396000f3fe6080604052600436106100dd5760003560e01c806392d2e4381161007f578063da58c7d911610059578063da58c7d91461027f578063dfbf53ae146102bc578063e168c3ec146102e7578063f594f13f14610312576100dd565b806392d2e438146101fe578063ad69ab9514610229578063af640d0f14610254576100dd565b80635a0857d4116100bb5780635a0857d4146101545780636143bb03146101915780638da5cb5b146101a8578063900551a8146101d3576100dd565b806302d947ef146100e25780633fad9ae0146100fe578063597e1fb514610129575b600080fd5b6100fc60048036038101906100f791906108ee565b61034f565b005b34801561010a57600080fd5b506101136104d3565b60405161012091906109c7565b60405180910390f35b34801561013557600080fd5b5061013e610561565b60405161014b9190610a04565b60405180910390f35b34801561016057600080fd5b5061017b60048036038101906101769190610a1f565b610574565b6040516101889190610a5b565b60405180910390f35b34801561019d57600080fd5b506101a66105bd565b005b3480156101b457600080fd5b506101bd610690565b6040516101ca9190610a85565b60405180910390f35b3480156101df57600080fd5b506101e86106b4565b6040516101f59190610a5b565b60405180910390f35b34801561020a57600080fd5b506102136106bc565b60405161022091906109c7565b60405180910390f35b34801561023557600080fd5b5061023e61074a565b60405161024b91906109c7565b60405180910390f35b34801561026057600080fd5b506102696107d8565b6040516102769190610a5b565b60405180910390f35b34801561028b57600080fd5b506102a660048036038101906102a19190610aa0565b6107de565b6040516102b39190610a85565b60405180910390f35b3480156102c857600080fd5b506102d161081d565b6040516102de9190610a5b565b60405180910390f35b3480156102f357600080fd5b506102fc610823565b6040516103099190610a5b565b60405180910390f35b34801561031e57600080fd5b5061033960048036038101906103349190610a1f565b610829565b6040516103469190610a5b565b60405180910390f35b6000600b60003373ffffffffffffffffffffffffffffffffffffffff1673ffffffffffffffffffffffffffffffffffffffff16815260200190815260200160002054146103d1576040517f08c379a00000000000000000000000000000000000000000000000000000000081526004016103c890610b19565b60405180910390fd5b81600b60008373ffffffffffffffffffffffffffffffffffffffff1673ffffffffffffffffffffffffffffffffffffffff16815260200190815260200160002081905550600182141561043b576008600081548092919061043190610b68565b9190505550610454565b6009600081548092919061044e90610b68565b91905055505b6002600081548092919061046790610b68565b9190505550600a339080600181540180825580915050600190039060005260206000200160009091909190916101000a81548173ffffffffffffffffffffffffffffffffffffffff021916908373ffffffffffffffffffffffffffffffffffffffff1602179055505050565b600480546104e090610be0565b80601f016020809104026020016040519081016040528092919081815260200182805461050c90610be0565b80156105595780601f1061052e57610100808354040283529160200191610559565b820191906000526020600020905b81548152906001019060200180831161053c57829003601f168201915b505050505081565b600760009054906101000a900460ff1681565b6000600b60008373ffffffffffffffffffffffffffffffffffffffff1673ffffffffffffffffffffffffffffffffffffffff168152602001908152602001600020549050919050565b60008054906101000a900473ffffffffffffffffffffffffffffffffffffffff1673ffffffffffffffffffffffffffffffffffffffff163373ffffffffffffffffffffffffffffffffffffffff161461064b576040517f08c379a000000000000000000000000000000000000000000000000000000000815260040161064290610c5e565b60405180910390fd5b6001600760006101000a81548160ff02191690831515021790555061066e610841565b61067661084b565b11610682576001610685565b60025b60ff16600381905550565b60008054906101000a900473ffffffffffffffffffffffffffffffffffffffff1681565b600047905090565b600580546106c990610be0565b80601f01602080910402602001604051908101604052809291908181526020018280546106f590610be0565b80156107425780601f1061071757610100808354040283529160200191610742565b820191906000526020600020905b81548152906001019060200180831161072557829003601f168201915b505050505081565b6006805461075790610be0565b80601f016020809104026020016040519081016040528092919081815260200182805461078390610be0565b80156107d05780601f106107a5576101008083540402835291602001916107d0565b820191906000526020600020905b8154815290600101906020018083116107b357829003601f168201915b505050505081565b60015481565b600a81815481106107ee57600080fd5b906000526020600020016000915054906101000a900473ffffffffffffffffffffffffffffffffffffffff1681565b60035481565b60025481565b600b6020528060005260406000206000915090505481565b6000600954905090565b6000600854905090565b600080fd5b6000819050919050565b61086d8161085a565b811461087857600080fd5b50565b60008135905061088a81610864565b92915050565b600073ffffffffffffffffffffffffffffffffffffffff82169050919050565b60006108bb82610890565b9050919050565b6108cb816108b0565b81146108d657600080fd5b50565b6000813590506108e8816108c2565b92915050565b6000806040838503121561090557610904610855565b5b60006109138582860161087b565b9250506020610924858286016108d9565b9150509250929050565b600081519050919050565b600082825260208201905092915050565b60005b8381101561096857808201518184015260208101905061094d565b83811115610977576000848401525b50505050565b6000601f19601f8301169050919050565b60006109998261092e565b6109a38185610939565b93506109b381856020860161094a565b6109bc8161097d565b840191505092915050565b600060208201905081810360008301526109e1818461098e565b905092915050565b60008115159050919050565b6109fe816109e9565b82525050565b6000602082019050610a1960008301846109f5565b92915050565b600060208284031215610a3557610a34610855565b5b6000610a43848285016108d9565b91505092915050565b610a558161085a565b82525050565b6000602082019050610a706000830184610a4c565b92915050565b610a7f816108b0565b82525050565b6000602082019050610a9a6000830184610a76565b92915050565b600060208284031215610ab657610ab5610855565b5b6000610ac48482850161087b565b91505092915050565b7f416c726561647920766f74656400000000000000000000000000000000000000600082015250565b6000610b03600d83610939565b9150610b0e82610acd565b602082019050919050565b60006020820190508181036000830152610b3281610af6565b9050919050565b7f4e487b7100000000000000000000000000000000000000000000000000000000600052601160045260246000fd5b6000610b738261085a565b91507fffffffffffffffffffffffffffffffffffffffffffffffffffffffffffffffff821415610ba657610ba5610b39565b5b600182019050919050565b7f4e487b7100000000000000000000000000000000000000000000000000000000600052602260045260246000fd5b60006002820490506001821680610bf857607f821691505b60208210811415610c0c57610c0b610bb1565b5b50919050565b7f41646472657373206d757374206265206f776e65720000000000000000000000600082015250565b6000610c48601583610939565b9150610c5382610c12565b602082019050919050565b60006020820190508181036000830152610c7781610c3b565b905091905056fea26469706673582212209594a4abcbaac195bfe538e8cb8412235bd85e9d238680ab20a32e9a7400691e64736f6c634300080b0033a264697066735822122084fccf63b9a27702d8f4d4928da86a7eaf064e44f4d346c70f98a72d3df159e864736f6c634300080b0033",
  "immutableReferences": {},
  "source": "//SPDX-License-Identifier: MIT\r\npragma solidity 0.8.11;\r\n\r\nimport \"./Question.sol\";\r\n\r\ncontract VotingGame{\r\n\r\n    address payable public owner;\r\n    \r\n    uint public fee;\r\n    uint public bid;\r\n    uint public countQuestion;\r\n\r\n    mapping(address => uint) public bidders; \r\n\r\n    Question[] public questions;\r\n    \r\n    constructor(){\r\n        owner = payable(msg.sender);\r\n        fee = 5 * 10 ** 16;\r\n        bid = 1 * 10 ** 18;\r\n    }\r\n\r\n    modifier onlyOwner(){\r\n        require(msg.sender == owner, \"Address must be owner\");\r\n        _;\r\n    }\r\n\r\n    function vote(uint _question, uint _option) public payable {\r\n        require(msg.value>=(fee + bid),\"Value must be greater than both bid and fee\");\r\n        questions[_question].vote(_option,msg.sender);\r\n        withdrawFee();\r\n    }\r\n\r\n    function closeQuestion (uint _id) public {\r\n        questions[_id].closeQuestion();\r\n    }\r\n\r\n    function getQuestions() public view returns (Question[] memory) {\r\n        return questions;\r\n    }\r\n\r\n    function createQuestion(string memory _question, string memory _opt1, string memory _opt2) public onlyOwner(){\r\n        Question add = new Question(countQuestion,_question,_opt1,_opt2);\r\n        questions.push(add);\r\n        countQuestion++;\r\n    }\r\n\r\n    function changeFee(uint _fee) public onlyOwner(){\r\n        fee = _fee;\r\n    }\r\n\r\n    function changeBid(uint _bid) public onlyOwner(){\r\n        bid = _bid;\r\n    }\r\n\r\n    function withdraw() public onlyOwner() {\r\n        require(address(this).balance>0,\"Balance is empty\");\r\n        owner.transfer(address(this).balance);\r\n    }\r\n\r\n    function withdrawFee() internal {\r\n        owner.transfer(fee);\r\n    }\r\n}",
  "sourcePath": "C:\\Users\\ralph\\OneDrive\\Desktop\\sol\\VotingApp\\app\\contracts\\VotingGame.sol",
  "compiler": {
    "name": "solc",
    "version": "0.8.11+commit.d7f03943.Emscripten.clang"
  },
  "schemaVersion": "3.4.5",
  "updatedAt": "2022-03-21T10:52:24.849Z",
  "networkType": "ethereum",
  "devdoc": {
    "kind": "dev",
    "methods": {},
    "version": 1
  },
  "userdoc": {
    "kind": "user",
    "methods": {},
    "version": 1
  }
}