{
  "contractName": "VotingGame",
  "abi": [
    {
      "inputs": [],
      "stateMutability": "nonpayable",
      "type": "constructor"
    },
    {
      "inputs": [],
      "name": "bid",
      "outputs": [
        {
          "internalType": "uint256",
          "name": "",
          "type": "uint256"
        }
      ],
      "stateMutability": "view",
      "type": "function",
      "constant": true
    },
    {
      "inputs": [
        {
          "internalType": "address",
          "name": "",
          "type": "address"
        }
      ],
      "name": "bidders",
      "outputs": [
        {
          "internalType": "uint256",
          "name": "",
          "type": "uint256"
        }
      ],
      "stateMutability": "view",
      "type": "function",
      "constant": true
    },
    {
      "inputs": [],
      "name": "countQuestion",
      "outputs": [
        {
          "internalType": "uint256",
          "name": "",
          "type": "uint256"
        }
      ],
      "stateMutability": "view",
      "type": "function",
      "constant": true
    },
    {
      "inputs": [],
      "name": "fee",
      "outputs": [
        {
          "internalType": "uint256",
          "name": "",
          "type": "uint256"
        }
      ],
      "stateMutability": "view",
      "type": "function",
      "constant": true
    },
    {
      "inputs": [],
      "name": "owner",
      "outputs": [
        {
          "internalType": "address payable",
          "name": "",
          "type": "address"
        }
      ],
      "stateMutability": "view",
      "type": "function",
      "constant": true
    },
    {
      "inputs": [
        {
          "internalType": "uint256",
          "name": "",
          "type": "uint256"
        }
      ],
      "name": "questions",
      "outputs": [
        {
          "internalType": "contract Question",
          "name": "",
          "type": "address"
        }
      ],
      "stateMutability": "view",
      "type": "function",
      "constant": true
    },
    {
      "inputs": [
        {
          "internalType": "uint256",
          "name": "_question",
          "type": "uint256"
        },
        {
          "internalType": "uint256",
          "name": "_option",
          "type": "uint256"
        }
      ],
      "name": "vote",
      "outputs": [],
      "stateMutability": "payable",
      "type": "function",
      "payable": true
    },
    {
      "inputs": [],
      "name": "getQuestions",
      "outputs": [
        {
          "internalType": "contract Question[]",
          "name": "",
          "type": "address[]"
        }
      ],
      "stateMutability": "view",
      "type": "function",
      "constant": true
    },
    {
      "inputs": [
        {
          "internalType": "string",
          "name": "_question",
          "type": "string"
        },
        {
          "internalType": "string",
          "name": "_opt1",
          "type": "string"
        },
        {
          "internalType": "string",
          "name": "_opt2",
          "type": "string"
        }
      ],
      "name": "createQuestion",
      "outputs": [],
      "stateMutability": "nonpayable",
      "type": "function"
    },
    {
      "inputs": [
        {
          "internalType": "uint256",
          "name": "_fee",
          "type": "uint256"
        }
      ],
      "name": "changeFee",
      "outputs": [],
      "stateMutability": "nonpayable",
      "type": "function"
    },
    {
      "inputs": [
        {
          "internalType": "uint256",
          "name": "_bid",
          "type": "uint256"
        }
      ],
      "name": "changeBid",
      "outputs": [],
      "stateMutability": "nonpayable",
      "type": "function"
    },
    {
      "inputs": [],
      "name": "withdraw",
      "outputs": [],
      "stateMutability": "nonpayable",
      "type": "function"
    }
  ],
  "bytecode": "0x608060405234801561001057600080fd5b50336000806101000a81548173ffffffffffffffffffffffffffffffffffffffff021916908373ffffffffffffffffffffffffffffffffffffffff16021790555066b1a2bc2ec50000600181905550670de0b6b3a7640000600281905550611e1d8061007d6000396000f3fe608060405260043610620000b65760003560e01c80638da5cb5b116200006d5780638da5cb5b14620001d557806397221ab71462000205578063b384abef1462000235578063ddca3f431462000255578063e93fa19c1462000285578063fcc8f79314620002b357620000b6565b80631998aeef14620000bb57806331b1b97814620000eb5780633ccfd60b146200012f5780634c05a51b146200014957806356fd3a5114620001795780636a1db1bf14620001a7575b600080fd5b348015620000c857600080fd5b50620000d3620002f7565b604051620000e291906200098b565b60405180910390f35b348015620000f857600080fd5b50620001176004803603810190620001119190620009ed565b620002fd565b60405162000126919062000aaa565b60405180910390f35b3480156200013c57600080fd5b50620001476200033d565b005b3480156200015657600080fd5b50620001616200047e565b6040516200017091906200098b565b60405180910390f35b3480156200018657600080fd5b50620001a560048036038101906200019f9190620009ed565b62000484565b005b348015620001b457600080fd5b50620001d36004803603810190620001cd9190620009ed565b6200051f565b005b348015620001e257600080fd5b50620001ed620005ba565b604051620001fc919062000aec565b60405180910390f35b3480156200021257600080fd5b506200021d620005de565b6040516200022c919062000bd7565b60405180910390f35b6200025360048036038101906200024d919062000bfb565b6200066e565b005b3480156200026257600080fd5b506200026d62000783565b6040516200027c91906200098b565b60405180910390f35b3480156200029257600080fd5b50620002b16004803603810190620002ab919062000da4565b62000789565b005b348015620002c057600080fd5b50620002df6004803603810190620002d9919062000ea2565b620008de565b604051620002ee91906200098b565b60405180910390f35b60025481565b600581815481106200030e57600080fd5b906000526020600020016000915054906101000a900473ffffffffffffffffffffffffffffffffffffffff1681565b60008054906101000a900473ffffffffffffffffffffffffffffffffffffffff1673ffffffffffffffffffffffffffffffffffffffff163373ffffffffffffffffffffffffffffffffffffffff1614620003ce576040517f08c379a0000000000000000000000000000000000000000000000000000000008152600401620003c59062000f35565b60405180910390fd5b6000471162000414576040517f08c379a00000000000000000000000000000000000000000000000000000000081526004016200040b9062000fa7565b60405180910390fd5b60008054906101000a900473ffffffffffffffffffffffffffffffffffffffff1673ffffffffffffffffffffffffffffffffffffffff166108fc479081150290604051600060405180830381858888f193505050501580156200047b573d6000803e3d6000fd5b50565b60035481565b60008054906101000a900473ffffffffffffffffffffffffffffffffffffffff1673ffffffffffffffffffffffffffffffffffffffff163373ffffffffffffffffffffffffffffffffffffffff161462000515576040517f08c379a00000000000000000000000000000000000000000000000000000000081526004016200050c9062000f35565b60405180910390fd5b8060028190555050565b60008054906101000a900473ffffffffffffffffffffffffffffffffffffffff1673ffffffffffffffffffffffffffffffffffffffff163373ffffffffffffffffffffffffffffffffffffffff1614620005b0576040517f08c379a0000000000000000000000000000000000000000000000000000000008152600401620005a79062000f35565b60405180910390fd5b8060018190555050565b60008054906101000a900473ffffffffffffffffffffffffffffffffffffffff1681565b606060058054806020026020016040519081016040528092919081815260200182805480156200066457602002820191906000526020600020905b8160009054906101000a900473ffffffffffffffffffffffffffffffffffffffff1673ffffffffffffffffffffffffffffffffffffffff168152602001906001019080831162000619575b5050505050905090565b60025460015462000680919062000ff8565b341015620006c5576040517f08c379a0000000000000000000000000000000000000000000000000000000008152600401620006bc90620010cb565b60405180910390fd5b60058281548110620006dc57620006db620010ed565b5b9060005260206000200160009054906101000a900473ffffffffffffffffffffffffffffffffffffffff1673ffffffffffffffffffffffffffffffffffffffff16630121b93f826040518263ffffffff1660e01b81526004016200074191906200098b565b600060405180830381600087803b1580156200075c57600080fd5b505af115801562000771573d6000803e3d6000fd5b505050506200077f620008f6565b5050565b60015481565b60008054906101000a900473ffffffffffffffffffffffffffffffffffffffff1673ffffffffffffffffffffffffffffffffffffffff163373ffffffffffffffffffffffffffffffffffffffff16146200081a576040517f08c379a0000000000000000000000000000000000000000000000000000000008152600401620008119062000f35565b60405180910390fd5b60008383836040516200082d9062000962565b6200083b939291906200119e565b604051809103906000f08015801562000858573d6000803e3d6000fd5b5090506005819080600181540180825580915050600190039060005260206000200160009091909190916101000a81548173ffffffffffffffffffffffffffffffffffffffff021916908373ffffffffffffffffffffffffffffffffffffffff16021790555060036000815480929190620008d390620011f0565b919050555050505050565b60046020528060005260406000206000915090505481565b60008054906101000a900473ffffffffffffffffffffffffffffffffffffffff1673ffffffffffffffffffffffffffffffffffffffff166108fc6001549081150290604051600060405180830381858888f193505050501580156200095f573d6000803e3d6000fd5b50565b610ba9806200123f83390190565b6000819050919050565b620009858162000970565b82525050565b6000602082019050620009a260008301846200097a565b92915050565b6000604051905090565b600080fd5b600080fd5b620009c78162000970565b8114620009d357600080fd5b50565b600081359050620009e781620009bc565b92915050565b60006020828403121562000a065762000a05620009b2565b5b600062000a1684828501620009d6565b91505092915050565b600073ffffffffffffffffffffffffffffffffffffffff82169050919050565b6000819050919050565b600062000a6a62000a6462000a5e8462000a1f565b62000a3f565b62000a1f565b9050919050565b600062000a7e8262000a49565b9050919050565b600062000a928262000a71565b9050919050565b62000aa48162000a85565b82525050565b600060208201905062000ac1600083018462000a99565b92915050565b600062000ad48262000a1f565b9050919050565b62000ae68162000ac7565b82525050565b600060208201905062000b03600083018462000adb565b92915050565b600081519050919050565b600082825260208201905092915050565b6000819050602082019050919050565b62000b408162000a85565b82525050565b600062000b54838362000b35565b60208301905092915050565b6000602082019050919050565b600062000b7a8262000b09565b62000b86818562000b14565b935062000b938362000b25565b8060005b8381101562000bca57815162000bae888262000b46565b975062000bbb8362000b60565b92505060018101905062000b97565b5085935050505092915050565b6000602082019050818103600083015262000bf3818462000b6d565b905092915050565b6000806040838503121562000c155762000c14620009b2565b5b600062000c2585828601620009d6565b925050602062000c3885828601620009d6565b9150509250929050565b600080fd5b600080fd5b6000601f19601f8301169050919050565b7f4e487b7100000000000000000000000000000000000000000000000000000000600052604160045260246000fd5b62000c978262000c4c565b810181811067ffffffffffffffff8211171562000cb95762000cb862000c5d565b5b80604052505050565b600062000cce620009a8565b905062000cdc828262000c8c565b919050565b600067ffffffffffffffff82111562000cff5762000cfe62000c5d565b5b62000d0a8262000c4c565b9050602081019050919050565b82818337600083830152505050565b600062000d3d62000d378462000ce1565b62000cc2565b90508281526020810184848401111562000d5c5762000d5b62000c47565b5b62000d6984828562000d17565b509392505050565b600082601f83011262000d895762000d8862000c42565b5b813562000d9b84826020860162000d26565b91505092915050565b60008060006060848603121562000dc05762000dbf620009b2565b5b600084013567ffffffffffffffff81111562000de15762000de0620009b7565b5b62000def8682870162000d71565b935050602084013567ffffffffffffffff81111562000e135762000e12620009b7565b5b62000e218682870162000d71565b925050604084013567ffffffffffffffff81111562000e455762000e44620009b7565b5b62000e538682870162000d71565b9150509250925092565b600062000e6a8262000a1f565b9050919050565b62000e7c8162000e5d565b811462000e8857600080fd5b50565b60008135905062000e9c8162000e71565b92915050565b60006020828403121562000ebb5762000eba620009b2565b5b600062000ecb8482850162000e8b565b91505092915050565b600082825260208201905092915050565b7f41646472657373206d757374206265206f776e65720000000000000000000000600082015250565b600062000f1d60158362000ed4565b915062000f2a8262000ee5565b602082019050919050565b6000602082019050818103600083015262000f508162000f0e565b9050919050565b7f42616c616e636520697320656d70747900000000000000000000000000000000600082015250565b600062000f8f60108362000ed4565b915062000f9c8262000f57565b602082019050919050565b6000602082019050818103600083015262000fc28162000f80565b9050919050565b7f4e487b7100000000000000000000000000000000000000000000000000000000600052601160045260246000fd5b6000620010058262000970565b9150620010128362000970565b9250827fffffffffffffffffffffffffffffffffffffffffffffffffffffffffffffffff038211156200104a576200104962000fc9565b5b828201905092915050565b7f56616c7565206d7573742062652067726561746572207468616e20626f74682060008201527f62696420616e6420666565000000000000000000000000000000000000000000602082015250565b6000620010b3602b8362000ed4565b9150620010c08262001055565b604082019050919050565b60006020820190508181036000830152620010e681620010a4565b9050919050565b7f4e487b7100000000000000000000000000000000000000000000000000000000600052603260045260246000fd5b600081519050919050565b60005b83811015620011475780820151818401526020810190506200112a565b8381111562001157576000848401525b50505050565b60006200116a826200111c565b62001176818562000ed4565b93506200118881856020860162001127565b620011938162000c4c565b840191505092915050565b60006060820190508181036000830152620011ba81866200115d565b90508181036020830152620011d081856200115d565b90508181036040830152620011e681846200115d565b9050949350505050565b6000620011fd8262000970565b91507fffffffffffffffffffffffffffffffffffffffffffffffffffffffffffffffff82141562001233576200123262000fc9565b5b60018201905091905056fe60806040523480156200001157600080fd5b5060405162000ba938038062000ba98339818101604052810190620000379190620002d8565b82600090805190602001906200004f9291906200008b565b508160019080519060200190620000689291906200008b565b508060029080519060200190620000819291906200008b565b50505050620003f6565b8280546200009990620003c0565b90600052602060002090601f016020900481019282620000bd576000855562000109565b82601f10620000d857805160ff191683800117855562000109565b8280016001018555821562000109579182015b8281111562000108578251825591602001919060010190620000eb565b5b5090506200011891906200011c565b5090565b5b80821115620001375760008160009055506001016200011d565b5090565b6000604051905090565b600080fd5b600080fd5b600080fd5b600080fd5b6000601f19601f8301169050919050565b7f4e487b7100000000000000000000000000000000000000000000000000000000600052604160045260246000fd5b620001a48262000159565b810181811067ffffffffffffffff82111715620001c657620001c56200016a565b5b80604052505050565b6000620001db6200013b565b9050620001e9828262000199565b919050565b600067ffffffffffffffff8211156200020c576200020b6200016a565b5b620002178262000159565b9050602081019050919050565b60005b838110156200024457808201518184015260208101905062000227565b8381111562000254576000848401525b50505050565b6000620002716200026b84620001ee565b620001cf565b90508281526020810184848401111562000290576200028f62000154565b5b6200029d84828562000224565b509392505050565b600082601f830112620002bd57620002bc6200014f565b5b8151620002cf8482602086016200025a565b91505092915050565b600080600060608486031215620002f457620002f362000145565b5b600084015167ffffffffffffffff8111156200031557620003146200014a565b5b6200032386828701620002a5565b935050602084015167ffffffffffffffff8111156200034757620003466200014a565b5b6200035586828701620002a5565b925050604084015167ffffffffffffffff8111156200037957620003786200014a565b5b6200038786828701620002a5565b9150509250925092565b7f4e487b7100000000000000000000000000000000000000000000000000000000600052602260045260246000fd5b60006002820490506001821680620003d957607f821691505b60208210811415620003f057620003ef62000391565b5b50919050565b6107a380620004066000396000f3fe6080604052600436106100555760003560e01c80630121b93f1461005a5780633fad9ae01461007657806392d2e438146100a1578063ad69ab95146100cc578063da58c7d9146100f7578063f594f13f14610134575b600080fd5b610074600480360381019061006f91906104d9565b610171565b005b34801561008257600080fd5b5061008b61029d565b604051610098919061059f565b60405180910390f35b3480156100ad57600080fd5b506100b661032b565b6040516100c3919061059f565b60405180910390f35b3480156100d857600080fd5b506100e16103b9565b6040516100ee919061059f565b60405180910390f35b34801561010357600080fd5b5061011e600480360381019061011991906104d9565b610447565b60405161012b9190610602565b60405180910390f35b34801561014057600080fd5b5061015b60048036038101906101569190610649565b610486565b6040516101689190610685565b60405180910390f35b6000600460003373ffffffffffffffffffffffffffffffffffffffff1673ffffffffffffffffffffffffffffffffffffffff16815260200190815260200160002054146101f3576040517f08c379a00000000000000000000000000000000000000000000000000000000081526004016101ea906106ec565b60405180910390fd5b80600460003373ffffffffffffffffffffffffffffffffffffffff1673ffffffffffffffffffffffffffffffffffffffff168152602001908152602001600020819055506003339080600181540180825580915050600190039060005260206000200160009091909190916101000a81548173ffffffffffffffffffffffffffffffffffffffff021916908373ffffffffffffffffffffffffffffffffffffffff16021790555050565b600080546102aa9061073b565b80601f01602080910402602001604051908101604052809291908181526020018280546102d69061073b565b80156103235780601f106102f857610100808354040283529160200191610323565b820191906000526020600020905b81548152906001019060200180831161030657829003601f168201915b505050505081565b600180546103389061073b565b80601f01602080910402602001604051908101604052809291908181526020018280546103649061073b565b80156103b15780601f10610386576101008083540402835291602001916103b1565b820191906000526020600020905b81548152906001019060200180831161039457829003601f168201915b505050505081565b600280546103c69061073b565b80601f01602080910402602001604051908101604052809291908181526020018280546103f29061073b565b801561043f5780601f106104145761010080835404028352916020019161043f565b820191906000526020600020905b81548152906001019060200180831161042257829003601f168201915b505050505081565b6003818154811061045757600080fd5b906000526020600020016000915054906101000a900473ffffffffffffffffffffffffffffffffffffffff1681565b60046020528060005260406000206000915090505481565b600080fd5b6000819050919050565b6104b6816104a3565b81146104c157600080fd5b50565b6000813590506104d3816104ad565b92915050565b6000602082840312156104ef576104ee61049e565b5b60006104fd848285016104c4565b91505092915050565b600081519050919050565b600082825260208201905092915050565b60005b83811015610540578082015181840152602081019050610525565b8381111561054f576000848401525b50505050565b6000601f19601f8301169050919050565b600061057182610506565b61057b8185610511565b935061058b818560208601610522565b61059481610555565b840191505092915050565b600060208201905081810360008301526105b98184610566565b905092915050565b600073ffffffffffffffffffffffffffffffffffffffff82169050919050565b60006105ec826105c1565b9050919050565b6105fc816105e1565b82525050565b600060208201905061061760008301846105f3565b92915050565b610626816105e1565b811461063157600080fd5b50565b6000813590506106438161061d565b92915050565b60006020828403121561065f5761065e61049e565b5b600061066d84828501610634565b91505092915050565b61067f816104a3565b82525050565b600060208201905061069a6000830184610676565b92915050565b7f416c726561647920766f74656400000000000000000000000000000000000000600082015250565b60006106d6600d83610511565b91506106e1826106a0565b602082019050919050565b60006020820190508181036000830152610705816106c9565b9050919050565b7f4e487b7100000000000000000000000000000000000000000000000000000000600052602260045260246000fd5b6000600282049050600182168061075357607f821691505b602082108114156107675761076661070c565b5b5091905056fea264697066735822122065ea7ff30660d8c2bc66fe33a939fce2f1d6ae039e463a8088a67d6e37531bdb64736f6c634300080b0033a26469706673582212204599cfbc0f422f293a0a0ec0cd3791f7a299f9b53807d30ed2e44974648b655064736f6c634300080b0033",
  "immutableReferences": {},
  "source": "//SPDX-License-Identifier: MIT\r\npragma solidity 0.8.11;\r\n\r\nimport \"./Question.sol\";\r\n\r\ncontract VotingGame{\r\n\r\n    address payable public owner;\r\n    \r\n    uint public fee;\r\n    uint public bid;\r\n    uint public countQuestion;\r\n\r\n    mapping(address => uint) public bidders; \r\n\r\n    Question[] public questions;\r\n    \r\n    constructor(){\r\n        owner = payable(msg.sender);\r\n        fee = 5 * 10 ** 16;\r\n        bid = 1 * 10 ** 18;\r\n    }\r\n\r\n\r\n\r\n    modifier onlyOwner(){\r\n        require(msg.sender == owner, \"Address must be owner\");\r\n        _;\r\n    }\r\n\r\n    function vote(uint _question, uint _option) public payable {\r\n        require(msg.value>=(fee + bid),\"Value must be greater than both bid and fee\");\r\n        questions[_question].vote(_option);\r\n        withdrawFee();\r\n    }\r\n\r\n    function getQuestions() public view returns (Question[] memory) {\r\n        return questions;\r\n    }\r\n\r\n    function createQuestion(string memory _question, string memory _opt1, string memory _opt2) public onlyOwner(){\r\n        Question add = new Question(_question,_opt1,_opt2);\r\n        questions.push(add);\r\n        countQuestion++;\r\n    }\r\n\r\n    function changeFee(uint _fee) public onlyOwner(){\r\n        fee = _fee;\r\n    }\r\n\r\n    function changeBid(uint _bid) public onlyOwner(){\r\n        bid = _bid;\r\n    }\r\n\r\n    function withdrawFee() internal {\r\n        owner.transfer(fee);\r\n    }\r\n\r\n    function withdraw() public onlyOwner() {\r\n        require(address(this).balance>0,\"Balance is empty\");\r\n        owner.transfer(address(this).balance);\r\n    }\r\n}",
  "sourcePath": "C:\\Users\\ralph\\OneDrive\\Desktop\\sol\\VotingApp\\app\\contracts\\VotingGame.sol",
  "compiler": {
    "name": "solc",
    "version": "0.8.11+commit.d7f03943.Emscripten.clang"
  },
  "schemaVersion": "3.4.5",
  "updatedAt": "2022-03-20T10:17:55.293Z",
  "networkType": "ethereum",
  "devdoc": {
    "kind": "dev",
    "methods": {},
    "version": 1
  },
  "userdoc": {
    "kind": "user",
    "methods": {},
    "version": 1
  }
}