{
  "contractName": "VotingGame",
  "abi": [
    {
      "inputs": [],
      "stateMutability": "nonpayable",
      "type": "constructor"
    },
    {
      "inputs": [],
      "name": "fee",
      "outputs": [
        {
          "internalType": "uint256",
          "name": "",
          "type": "uint256"
        }
      ],
      "stateMutability": "view",
      "type": "function",
      "constant": true
    },
    {
      "inputs": [],
      "name": "owner",
      "outputs": [
        {
          "internalType": "address",
          "name": "",
          "type": "address"
        }
      ],
      "stateMutability": "view",
      "type": "function",
      "constant": true
    },
    {
      "inputs": [
        {
          "internalType": "uint256",
          "name": "",
          "type": "uint256"
        }
      ],
      "name": "questions",
      "outputs": [
        {
          "internalType": "string",
          "name": "question",
          "type": "string"
        },
        {
          "internalType": "string",
          "name": "option1",
          "type": "string"
        },
        {
          "internalType": "string",
          "name": "option2",
          "type": "string"
        }
      ],
      "stateMutability": "view",
      "type": "function",
      "constant": true
    },
    {
      "inputs": [
        {
          "internalType": "string",
          "name": "_question",
          "type": "string"
        },
        {
          "internalType": "string",
          "name": "_opt1",
          "type": "string"
        },
        {
          "internalType": "string",
          "name": "_opt2",
          "type": "string"
        }
      ],
      "name": "createQuestion",
      "outputs": [],
      "stateMutability": "nonpayable",
      "type": "function"
    },
    {
      "inputs": [
        {
          "internalType": "uint256",
          "name": "_fee",
          "type": "uint256"
        }
      ],
      "name": "changeFee",
      "outputs": [],
      "stateMutability": "nonpayable",
      "type": "function"
    }
  ],
  "bytecode": "0x608060405234801561001057600080fd5b50336000806101000a81548173ffffffffffffffffffffffffffffffffffffffff021916908373ffffffffffffffffffffffffffffffffffffffff16021790555066b1a2bc2ec50000600181905550610a2c8061006e6000396000f3fe608060405234801561001057600080fd5b50600436106100575760003560e01c806331b1b9781461005c5780636a1db1bf1461008e5780638da5cb5b146100aa578063ddca3f43146100c8578063e93fa19c146100e6575b600080fd5b610076600480360381019061007191906105b5565b610102565b6040516100859392919061067b565b60405180910390f35b6100a860048036038101906100a391906105b5565b6102d4565b005b6100b261036c565b6040516100bf9190610708565b60405180910390f35b6100d0610390565b6040516100dd9190610732565b60405180910390f35b61010060048036038101906100fb9190610882565b610396565b005b6002818154811061011257600080fd5b906000526020600020906003020160009150905080600001805461013590610958565b80601f016020809104026020016040519081016040528092919081815260200182805461016190610958565b80156101ae5780601f10610183576101008083540402835291602001916101ae565b820191906000526020600020905b81548152906001019060200180831161019157829003601f168201915b5050505050908060010180546101c390610958565b80601f01602080910402602001604051908101604052809291908181526020018280546101ef90610958565b801561023c5780601f106102115761010080835404028352916020019161023c565b820191906000526020600020905b81548152906001019060200180831161021f57829003601f168201915b50505050509080600201805461025190610958565b80601f016020809104026020016040519081016040528092919081815260200182805461027d90610958565b80156102ca5780601f1061029f576101008083540402835291602001916102ca565b820191906000526020600020905b8154815290600101906020018083116102ad57829003601f168201915b5050505050905083565b60008054906101000a900473ffffffffffffffffffffffffffffffffffffffff1673ffffffffffffffffffffffffffffffffffffffff163373ffffffffffffffffffffffffffffffffffffffff1614610362576040517f08c379a0000000000000000000000000000000000000000000000000000000008152600401610359906109d6565b60405180910390fd5b8060018190555050565b60008054906101000a900473ffffffffffffffffffffffffffffffffffffffff1681565b60015481565b60008054906101000a900473ffffffffffffffffffffffffffffffffffffffff1673ffffffffffffffffffffffffffffffffffffffff163373ffffffffffffffffffffffffffffffffffffffff1614610424576040517f08c379a000000000000000000000000000000000000000000000000000000000815260040161041b906109d6565b60405180910390fd5b6002604051806060016040528085815260200184815260200183815250908060018154018082558091505060019003906000526020600020906003020160009091909190915060008201518160000190805190602001906104869291906104c8565b5060208201518160010190805190602001906104a39291906104c8565b5060408201518160020190805190602001906104c09291906104c8565b505050505050565b8280546104d490610958565b90600052602060002090601f0160209004810192826104f6576000855561053d565b82601f1061050f57805160ff191683800117855561053d565b8280016001018555821561053d579182015b8281111561053c578251825591602001919060010190610521565b5b50905061054a919061054e565b5090565b5b8082111561056757600081600090555060010161054f565b5090565b6000604051905090565b600080fd5b600080fd5b6000819050919050565b6105928161057f565b811461059d57600080fd5b50565b6000813590506105af81610589565b92915050565b6000602082840312156105cb576105ca610575565b5b60006105d9848285016105a0565b91505092915050565b600081519050919050565b600082825260208201905092915050565b60005b8381101561061c578082015181840152602081019050610601565b8381111561062b576000848401525b50505050565b6000601f19601f8301169050919050565b600061064d826105e2565b61065781856105ed565b93506106678185602086016105fe565b61067081610631565b840191505092915050565b600060608201905081810360008301526106958186610642565b905081810360208301526106a98185610642565b905081810360408301526106bd8184610642565b9050949350505050565b600073ffffffffffffffffffffffffffffffffffffffff82169050919050565b60006106f2826106c7565b9050919050565b610702816106e7565b82525050565b600060208201905061071d60008301846106f9565b92915050565b61072c8161057f565b82525050565b60006020820190506107476000830184610723565b92915050565b600080fd5b600080fd5b7f4e487b7100000000000000000000000000000000000000000000000000000000600052604160045260246000fd5b61078f82610631565b810181811067ffffffffffffffff821117156107ae576107ad610757565b5b80604052505050565b60006107c161056b565b90506107cd8282610786565b919050565b600067ffffffffffffffff8211156107ed576107ec610757565b5b6107f682610631565b9050602081019050919050565b82818337600083830152505050565b6000610825610820846107d2565b6107b7565b90508281526020810184848401111561084157610840610752565b5b61084c848285610803565b509392505050565b600082601f8301126108695761086861074d565b5b8135610879848260208601610812565b91505092915050565b60008060006060848603121561089b5761089a610575565b5b600084013567ffffffffffffffff8111156108b9576108b861057a565b5b6108c586828701610854565b935050602084013567ffffffffffffffff8111156108e6576108e561057a565b5b6108f286828701610854565b925050604084013567ffffffffffffffff8111156109135761091261057a565b5b61091f86828701610854565b9150509250925092565b7f4e487b7100000000000000000000000000000000000000000000000000000000600052602260045260246000fd5b6000600282049050600182168061097057607f821691505b6020821081141561098457610983610929565b5b50919050565b7f41646472657373206d757374206265206f776e65720000000000000000000000600082015250565b60006109c06015836105ed565b91506109cb8261098a565b602082019050919050565b600060208201905081810360008301526109ef816109b3565b905091905056fea264697066735822122066f478928f6068a1a36cd5a0e678d05a48b373f66a01bd59dfd3dccfef30ef9b64736f6c634300080b0033",
  "immutableReferences": {},
  "source": "//SPDX-License-Identifier: MIT\r\npragma solidity 0.8.11;\r\n\r\ncontract VotingGame{\r\n\r\n    address public owner;\r\n    uint public fee;\r\n\r\n    struct Question {\r\n        string question;\r\n        string option1;\r\n        string option2;\r\n    }\r\n\r\n    constructor(){\r\n        owner = msg.sender;\r\n        fee = 5 * 10 ** 16;\r\n    }\r\n\r\n\r\n    Question[] public questions;\r\n\r\n    modifier onlyOwner(){\r\n        require(msg.sender == owner, \"Address must be owner\");\r\n        _;\r\n    }\r\n\r\n    function createQuestion(string memory _question, string memory _opt1, string memory _opt2) public onlyOwner(){\r\n        questions.push(Question(_question,_opt1,_opt2));\r\n    }\r\n\r\n    function changeFee(uint _fee) public onlyOwner(){\r\n        fee = _fee;\r\n    }\r\n}",
  "sourcePath": "C:\\Users\\ralph\\OneDrive\\Desktop\\sol\\VotingApp\\app\\contracts\\VotingGame.sol",
  "compiler": {
    "name": "solc",
    "version": "0.8.11+commit.d7f03943.Emscripten.clang"
  },
  "schemaVersion": "3.4.5",
  "updatedAt": "2022-03-19T12:33:23.254Z",
  "networkType": "ethereum",
  "devdoc": {
    "kind": "dev",
    "methods": {},
    "version": 1
  },
  "userdoc": {
    "kind": "user",
    "methods": {},
    "version": 1
  }
}