{
  "contractName": "VotingGame",
  "abi": [
    {
      "inputs": [],
      "stateMutability": "nonpayable",
      "type": "constructor"
    },
    {
      "inputs": [],
      "name": "bid",
      "outputs": [
        {
          "internalType": "uint256",
          "name": "",
          "type": "uint256"
        }
      ],
      "stateMutability": "view",
      "type": "function",
      "constant": true
    },
    {
      "inputs": [
        {
          "internalType": "address",
          "name": "",
          "type": "address"
        }
      ],
      "name": "bidders",
      "outputs": [
        {
          "internalType": "uint256",
          "name": "",
          "type": "uint256"
        }
      ],
      "stateMutability": "view",
      "type": "function",
      "constant": true
    },
    {
      "inputs": [
        {
          "internalType": "uint256",
          "name": "",
          "type": "uint256"
        }
      ],
      "name": "biddersArray",
      "outputs": [
        {
          "internalType": "address",
          "name": "",
          "type": "address"
        }
      ],
      "stateMutability": "view",
      "type": "function",
      "constant": true
    },
    {
      "inputs": [],
      "name": "countQuestion",
      "outputs": [
        {
          "internalType": "uint256",
          "name": "",
          "type": "uint256"
        }
      ],
      "stateMutability": "view",
      "type": "function",
      "constant": true
    },
    {
      "inputs": [],
      "name": "fee",
      "outputs": [
        {
          "internalType": "uint256",
          "name": "",
          "type": "uint256"
        }
      ],
      "stateMutability": "view",
      "type": "function",
      "constant": true
    },
    {
      "inputs": [],
      "name": "owner",
      "outputs": [
        {
          "internalType": "address payable",
          "name": "",
          "type": "address"
        }
      ],
      "stateMutability": "view",
      "type": "function",
      "constant": true
    },
    {
      "inputs": [
        {
          "internalType": "uint256",
          "name": "",
          "type": "uint256"
        }
      ],
      "name": "questionBalance",
      "outputs": [
        {
          "internalType": "uint256",
          "name": "",
          "type": "uint256"
        }
      ],
      "stateMutability": "view",
      "type": "function",
      "constant": true
    },
    {
      "inputs": [
        {
          "internalType": "uint256",
          "name": "",
          "type": "uint256"
        }
      ],
      "name": "questions",
      "outputs": [
        {
          "internalType": "contract Question",
          "name": "",
          "type": "address"
        }
      ],
      "stateMutability": "view",
      "type": "function",
      "constant": true
    },
    {
      "inputs": [
        {
          "internalType": "uint256",
          "name": "_question",
          "type": "uint256"
        },
        {
          "internalType": "uint256",
          "name": "_option",
          "type": "uint256"
        }
      ],
      "name": "vote",
      "outputs": [],
      "stateMutability": "payable",
      "type": "function",
      "payable": true
    },
    {
      "inputs": [
        {
          "internalType": "uint256",
          "name": "_id",
          "type": "uint256"
        }
      ],
      "name": "closeQuestion",
      "outputs": [],
      "stateMutability": "nonpayable",
      "type": "function"
    },
    {
      "inputs": [],
      "name": "getQuestions",
      "outputs": [
        {
          "internalType": "contract Question[]",
          "name": "",
          "type": "address[]"
        }
      ],
      "stateMutability": "view",
      "type": "function",
      "constant": true
    },
    {
      "inputs": [],
      "name": "returnBidders",
      "outputs": [
        {
          "internalType": "address[]",
          "name": "",
          "type": "address[]"
        }
      ],
      "stateMutability": "view",
      "type": "function",
      "constant": true
    },
    {
      "inputs": [
        {
          "internalType": "string",
          "name": "_question",
          "type": "string"
        },
        {
          "internalType": "string",
          "name": "_opt1",
          "type": "string"
        },
        {
          "internalType": "string",
          "name": "_opt2",
          "type": "string"
        }
      ],
      "name": "createQuestion",
      "outputs": [],
      "stateMutability": "nonpayable",
      "type": "function"
    },
    {
      "inputs": [
        {
          "internalType": "uint256",
          "name": "_fee",
          "type": "uint256"
        }
      ],
      "name": "changeFee",
      "outputs": [],
      "stateMutability": "nonpayable",
      "type": "function"
    },
    {
      "inputs": [
        {
          "internalType": "uint256",
          "name": "_bid",
          "type": "uint256"
        }
      ],
      "name": "changeBid",
      "outputs": [],
      "stateMutability": "nonpayable",
      "type": "function"
    },
    {
      "inputs": [],
      "name": "withdraw",
      "outputs": [],
      "stateMutability": "nonpayable",
      "type": "function"
    }
  ],
  "bytecode": "0x608060405234801561001057600080fd5b50336000806101000a81548173ffffffffffffffffffffffffffffffffffffffff021916908373ffffffffffffffffffffffffffffffffffffffff16021790555066b1a2bc2ec50000600181905550670de0b6b3a7640000600281905550612a6a8061007d6000396000f3fe6080604052600436106200010a5760003560e01c80638da5cb5b1162000097578063ddca3f431162000061578063ddca3f43146200035f578063e93fa19c146200038f578063ee74077114620003bd578063fcc8f79314620003ed576200010a565b80638da5cb5b14620002b157806397221ab714620002e1578063b384abef1462000311578063c09f32e81462000331576200010a565b806356fd3a5111620000d957806356fd3a5114620001cd57806368b6e43a14620001fb5780636a1db1bf146200023f5780638a94cfa3146200026d576200010a565b80631998aeef146200010f57806331b1b978146200013f5780633ccfd60b14620001835780634c05a51b146200019d575b600080fd5b3480156200011c57600080fd5b506200012762000431565b60405162000136919062000df8565b60405180910390f35b3480156200014c57600080fd5b506200016b600480360381019062000165919062000e5a565b62000437565b6040516200017a919062000f17565b60405180910390f35b3480156200019057600080fd5b506200019b62000477565b005b348015620001aa57600080fd5b50620001b5620005b8565b604051620001c4919062000df8565b60405180910390f35b348015620001da57600080fd5b50620001f96004803603810190620001f3919062000e5a565b620005be565b005b3480156200020857600080fd5b5062000227600480360381019062000221919062000e5a565b62000659565b60405162000236919062000df8565b60405180910390f35b3480156200024c57600080fd5b506200026b600480360381019062000265919062000e5a565b62000671565b005b3480156200027a57600080fd5b5062000299600480360381019062000293919062000e5a565b6200070c565b604051620002a8919062000f59565b60405180910390f35b348015620002be57600080fd5b50620002c96200074c565b604051620002d8919062000f9b565b60405180910390f35b348015620002ee57600080fd5b50620002f962000770565b60405162000308919062001086565b60405180910390f35b6200032f6004803603810190620003299190620010aa565b62000800565b005b3480156200033e57600080fd5b506200035d600480360381019062000357919062000e5a565b62000ab6565b005b3480156200036c57600080fd5b506200037762000b5c565b60405162000386919062000df8565b60405180910390f35b3480156200039c57600080fd5b50620003bb6004803603810190620003b5919062001253565b62000b62565b005b348015620003ca57600080fd5b50620003d562000cbb565b604051620003e49190620013c9565b60405180910390f35b348015620003fa57600080fd5b506200041960048036038101906200041391906200141e565b62000d4b565b60405162000428919062000df8565b60405180910390f35b60025481565b600781815481106200044857600080fd5b906000526020600020016000915054906101000a900473ffffffffffffffffffffffffffffffffffffffff1681565b60008054906101000a900473ffffffffffffffffffffffffffffffffffffffff1673ffffffffffffffffffffffffffffffffffffffff163373ffffffffffffffffffffffffffffffffffffffff161462000508576040517f08c379a0000000000000000000000000000000000000000000000000000000008152600401620004ff90620014b1565b60405180910390fd5b600047116200054e576040517f08c379a0000000000000000000000000000000000000000000000000000000008152600401620005459062001523565b60405180910390fd5b60008054906101000a900473ffffffffffffffffffffffffffffffffffffffff1673ffffffffffffffffffffffffffffffffffffffff166108fc479081150290604051600060405180830381858888f19350505050158015620005b5573d6000803e3d6000fd5b50565b60035481565b60008054906101000a900473ffffffffffffffffffffffffffffffffffffffff1673ffffffffffffffffffffffffffffffffffffffff163373ffffffffffffffffffffffffffffffffffffffff16146200064f576040517f08c379a00000000000000000000000000000000000000000000000000000000081526004016200064690620014b1565b60405180910390fd5b8060028190555050565b60066020528060005260406000206000915090505481565b60008054906101000a900473ffffffffffffffffffffffffffffffffffffffff1673ffffffffffffffffffffffffffffffffffffffff163373ffffffffffffffffffffffffffffffffffffffff161462000702576040517f08c379a0000000000000000000000000000000000000000000000000000000008152600401620006f990620014b1565b60405180910390fd5b8060018190555050565b600481815481106200071d57600080fd5b906000526020600020016000915054906101000a900473ffffffffffffffffffffffffffffffffffffffff1681565b60008054906101000a900473ffffffffffffffffffffffffffffffffffffffff1681565b60606007805480602002602001604051908101604052809291908181526020018280548015620007f657602002820191906000526020600020905b8160009054906101000a900473ffffffffffffffffffffffffffffffffffffffff1673ffffffffffffffffffffffffffffffffffffffff1681526020019060010190808311620007ab575b5050505050905090565b60025460015462000812919062001574565b34101562000857576040517f08c379a00000000000000000000000000000000000000000000000000000000081526004016200084e9062001647565b60405180910390fd5b600782815481106200086e576200086d62001669565b5b9060005260206000200160009054906101000a900473ffffffffffffffffffffffffffffffffffffffff1673ffffffffffffffffffffffffffffffffffffffff166398e434dd82336001546002546040518563ffffffff1660e01b8152600401620008dd949392919062001698565b600060405180830381600087803b158015620008f857600080fd5b505af11580156200090d573d6000803e3d6000fd5b505050506000805b600480549050811015620009b4573373ffffffffffffffffffffffffffffffffffffffff166004828154811062000951576200095062001669565b5b9060005260206000200160009054906101000a900473ffffffffffffffffffffffffffffffffffffffff1673ffffffffffffffffffffffffffffffffffffffff1614156200099e57600191505b8080620009ab90620016e5565b91505062000915565b508062000a1f576004339080600181540180825580915050600190039060005260206000200160009091909190916101000a81548173ffffffffffffffffffffffffffffffffffffffff021916908373ffffffffffffffffffffffffffffffffffffffff1602179055505b6001600560003373ffffffffffffffffffffffffffffffffffffffff1673ffffffffffffffffffffffffffffffffffffffff168152602001908152602001600020600082825462000a71919062001574565b92505081905550600060025460015462000a8c919062001574565b905080600660008681526020019081526020016000208190555062000ab062000d63565b50505050565b6007818154811062000acd5762000acc62001669565b5b9060005260206000200160009054906101000a900473ffffffffffffffffffffffffffffffffffffffff1673ffffffffffffffffffffffffffffffffffffffff16636143bb036040518163ffffffff1660e01b8152600401600060405180830381600087803b15801562000b4057600080fd5b505af115801562000b55573d6000803e3d6000fd5b5050505050565b60015481565b60008054906101000a900473ffffffffffffffffffffffffffffffffffffffff1673ffffffffffffffffffffffffffffffffffffffff163373ffffffffffffffffffffffffffffffffffffffff161462000bf3576040517f08c379a000000000000000000000000000000000000000000000000000000000815260040162000bea90620014b1565b60405180910390fd5b600060035484848460405162000c099062000dcf565b62000c189493929190620017b5565b604051809103906000f08015801562000c35573d6000803e3d6000fd5b5090506007819080600181540180825580915050600190039060005260206000200160009091909190916101000a81548173ffffffffffffffffffffffffffffffffffffffff021916908373ffffffffffffffffffffffffffffffffffffffff1602179055506003600081548092919062000cb090620016e5565b919050555050505050565b6060600480548060200260200160405190810160405280929190818152602001828054801562000d4157602002820191906000526020600020905b8160009054906101000a900473ffffffffffffffffffffffffffffffffffffffff1673ffffffffffffffffffffffffffffffffffffffff168152602001906001019080831162000cf6575b5050505050905090565b60056020528060005260406000206000915090505481565b60008054906101000a900473ffffffffffffffffffffffffffffffffffffffff1673ffffffffffffffffffffffffffffffffffffffff166108fc6001549081150290604051600060405180830381858888f1935050505015801562000dcc573d6000803e3d6000fd5b50565b61121d806200181883390190565b6000819050919050565b62000df28162000ddd565b82525050565b600060208201905062000e0f600083018462000de7565b92915050565b6000604051905090565b600080fd5b600080fd5b62000e348162000ddd565b811462000e4057600080fd5b50565b60008135905062000e548162000e29565b92915050565b60006020828403121562000e735762000e7262000e1f565b5b600062000e838482850162000e43565b91505092915050565b600073ffffffffffffffffffffffffffffffffffffffff82169050919050565b6000819050919050565b600062000ed762000ed162000ecb8462000e8c565b62000eac565b62000e8c565b9050919050565b600062000eeb8262000eb6565b9050919050565b600062000eff8262000ede565b9050919050565b62000f118162000ef2565b82525050565b600060208201905062000f2e600083018462000f06565b92915050565b600062000f418262000e8c565b9050919050565b62000f538162000f34565b82525050565b600060208201905062000f70600083018462000f48565b92915050565b600062000f838262000e8c565b9050919050565b62000f958162000f76565b82525050565b600060208201905062000fb2600083018462000f8a565b92915050565b600081519050919050565b600082825260208201905092915050565b6000819050602082019050919050565b62000fef8162000ef2565b82525050565b600062001003838362000fe4565b60208301905092915050565b6000602082019050919050565b6000620010298262000fb8565b62001035818562000fc3565b9350620010428362000fd4565b8060005b83811015620010795781516200105d888262000ff5565b97506200106a836200100f565b92505060018101905062001046565b5085935050505092915050565b60006020820190508181036000830152620010a281846200101c565b905092915050565b60008060408385031215620010c457620010c362000e1f565b5b6000620010d48582860162000e43565b9250506020620010e78582860162000e43565b9150509250929050565b600080fd5b600080fd5b6000601f19601f8301169050919050565b7f4e487b7100000000000000000000000000000000000000000000000000000000600052604160045260246000fd5b6200114682620010fb565b810181811067ffffffffffffffff821117156200116857620011676200110c565b5b80604052505050565b60006200117d62000e15565b90506200118b82826200113b565b919050565b600067ffffffffffffffff821115620011ae57620011ad6200110c565b5b620011b982620010fb565b9050602081019050919050565b82818337600083830152505050565b6000620011ec620011e68462001190565b62001171565b9050828152602081018484840111156200120b576200120a620010f6565b5b62001218848285620011c6565b509392505050565b600082601f830112620012385762001237620010f1565b5b81356200124a848260208601620011d5565b91505092915050565b6000806000606084860312156200126f576200126e62000e1f565b5b600084013567ffffffffffffffff81111562001290576200128f62000e24565b5b6200129e8682870162001220565b935050602084013567ffffffffffffffff811115620012c257620012c162000e24565b5b620012d08682870162001220565b925050604084013567ffffffffffffffff811115620012f457620012f362000e24565b5b620013028682870162001220565b9150509250925092565b600081519050919050565b6000819050602082019050919050565b620013328162000f34565b82525050565b600062001346838362001327565b60208301905092915050565b6000602082019050919050565b60006200136c826200130c565b62001378818562000fc3565b9350620013858362001317565b8060005b83811015620013bc578151620013a0888262001338565b9750620013ad8362001352565b92505060018101905062001389565b5085935050505092915050565b60006020820190508181036000830152620013e581846200135f565b905092915050565b620013f88162000f34565b81146200140457600080fd5b50565b6000813590506200141881620013ed565b92915050565b60006020828403121562001437576200143662000e1f565b5b6000620014478482850162001407565b91505092915050565b600082825260208201905092915050565b7f41646472657373206d757374206265206f776e65720000000000000000000000600082015250565b60006200149960158362001450565b9150620014a68262001461565b602082019050919050565b60006020820190508181036000830152620014cc816200148a565b9050919050565b7f42616c616e636520697320656d70747900000000000000000000000000000000600082015250565b60006200150b60108362001450565b91506200151882620014d3565b602082019050919050565b600060208201905081810360008301526200153e81620014fc565b9050919050565b7f4e487b7100000000000000000000000000000000000000000000000000000000600052601160045260246000fd5b6000620015818262000ddd565b91506200158e8362000ddd565b9250827fffffffffffffffffffffffffffffffffffffffffffffffffffffffffffffffff03821115620015c657620015c562001545565b5b828201905092915050565b7f56616c7565206d7573742062652067726561746572207468616e20626f74682060008201527f62696420616e6420666565000000000000000000000000000000000000000000602082015250565b60006200162f602b8362001450565b91506200163c82620015d1565b604082019050919050565b60006020820190508181036000830152620016628162001620565b9050919050565b7f4e487b7100000000000000000000000000000000000000000000000000000000600052603260045260246000fd5b6000608082019050620016af600083018762000de7565b620016be602083018662000f48565b620016cd604083018562000de7565b620016dc606083018462000de7565b95945050505050565b6000620016f28262000ddd565b91507fffffffffffffffffffffffffffffffffffffffffffffffffffffffffffffffff82141562001728576200172762001545565b5b600182019050919050565b600081519050919050565b60005b838110156200175e57808201518184015260208101905062001741565b838111156200176e576000848401525b50505050565b6000620017818262001733565b6200178d818562001450565b93506200179f8185602086016200173e565b620017aa81620010fb565b840191505092915050565b6000608082019050620017cc600083018762000de7565b8181036020830152620017e0818662001774565b90508181036040830152620017f6818562001774565b905081810360608301526200180c818462001774565b90509594505050505056fe60806040523480156200001157600080fd5b506040516200121d3803806200121d833981810160405281019062000037919062000376565b336000806101000a81548173ffffffffffffffffffffffffffffffffffffffff021916908373ffffffffffffffffffffffffffffffffffffffff16021790555083600181905550826004908051906020019062000096929190620000ee565b508160059080519060200190620000af929190620000ee565b508060069080519060200190620000c8929190620000ee565b506000600760006101000a81548160ff02191690831515021790555050505050620004aa565b828054620000fc9062000474565b90600052602060002090601f0160209004810192826200012057600085556200016c565b82601f106200013b57805160ff19168380011785556200016c565b828001600101855582156200016c579182015b828111156200016b5782518255916020019190600101906200014e565b5b5090506200017b91906200017f565b5090565b5b808211156200019a57600081600090555060010162000180565b5090565b6000604051905090565b600080fd5b600080fd5b6000819050919050565b620001c781620001b2565b8114620001d357600080fd5b50565b600081519050620001e781620001bc565b92915050565b600080fd5b600080fd5b6000601f19601f8301169050919050565b7f4e487b7100000000000000000000000000000000000000000000000000000000600052604160045260246000fd5b6200024282620001f7565b810181811067ffffffffffffffff8211171562000264576200026362000208565b5b80604052505050565b6000620002796200019e565b905062000287828262000237565b919050565b600067ffffffffffffffff821115620002aa57620002a962000208565b5b620002b582620001f7565b9050602081019050919050565b60005b83811015620002e2578082015181840152602081019050620002c5565b83811115620002f2576000848401525b50505050565b60006200030f62000309846200028c565b6200026d565b9050828152602081018484840111156200032e576200032d620001f2565b5b6200033b848285620002c2565b509392505050565b600082601f8301126200035b576200035a620001ed565b5b81516200036d848260208601620002f8565b91505092915050565b60008060008060808587031215620003935762000392620001a8565b5b6000620003a387828801620001d6565b945050602085015167ffffffffffffffff811115620003c757620003c6620001ad565b5b620003d58782880162000343565b935050604085015167ffffffffffffffff811115620003f957620003f8620001ad565b5b620004078782880162000343565b925050606085015167ffffffffffffffff8111156200042b576200042a620001ad565b5b620004398782880162000343565b91505092959194509250565b7f4e487b7100000000000000000000000000000000000000000000000000000000600052602260045260246000fd5b600060028204905060018216806200048d57607f821691505b60208210811415620004a457620004a362000445565b5b50919050565b610d6380620004ba6000396000f3fe6080604052600436106100dd5760003560e01c806398e434dd1161007f578063da58c7d911610059578063da58c7d91461027f578063dfbf53ae146102bc578063e168c3ec146102e7578063f594f13f14610312576100dd565b806398e434dd1461020d578063ad69ab9514610229578063af640d0f14610254576100dd565b80636143bb03116100bb5780636143bb03146101755780638da5cb5b1461018c578063900551a8146101b757806392d2e438146101e2576100dd565b80633fad9ae0146100e2578063597e1fb51461010d5780635a0857d414610138575b600080fd5b3480156100ee57600080fd5b506100f761034f565b6040516101049190610920565b60405180910390f35b34801561011957600080fd5b506101226103dd565b60405161012f919061095d565b60405180910390f35b34801561014457600080fd5b5061015f600480360381019061015a91906109db565b6103f0565b60405161016c9190610a21565b60405180910390f35b34801561018157600080fd5b5061018a610439565b005b34801561019857600080fd5b506101a16104ec565b6040516101ae9190610a4b565b60405180910390f35b3480156101c357600080fd5b506101cc610510565b6040516101d99190610a21565b60405180910390f35b3480156101ee57600080fd5b506101f761051a565b6040516102049190610920565b60405180910390f35b61022760048036038101906102229190610a92565b6105a8565b005b34801561023557600080fd5b5061023e610752565b60405161024b9190610920565b60405180910390f35b34801561026057600080fd5b506102696107e0565b6040516102769190610a21565b60405180910390f35b34801561028b57600080fd5b506102a660048036038101906102a19190610af9565b6107e6565b6040516102b39190610a4b565b60405180910390f35b3480156102c857600080fd5b506102d1610825565b6040516102de9190610a21565b60405180910390f35b3480156102f357600080fd5b506102fc61082b565b6040516103099190610a21565b60405180910390f35b34801561031e57600080fd5b50610339600480360381019061033491906109db565b610831565b6040516103469190610a21565b60405180910390f35b6004805461035c90610b55565b80601f016020809104026020016040519081016040528092919081815260200182805461038890610b55565b80156103d55780601f106103aa576101008083540402835291602001916103d5565b820191906000526020600020905b8154815290600101906020018083116103b857829003601f168201915b505050505081565b600760009054906101000a900460ff1681565b6000600c60008373ffffffffffffffffffffffffffffffffffffffff1673ffffffffffffffffffffffffffffffffffffffff168152602001908152602001600020549050919050565b60008054906101000a900473ffffffffffffffffffffffffffffffffffffffff1673ffffffffffffffffffffffffffffffffffffffff163373ffffffffffffffffffffffffffffffffffffffff16146104c7576040517f08c379a00000000000000000000000000000000000000000000000000000000081526004016104be90610bd3565b60405180910390fd5b6001600760006101000a81548160ff0219169083151502179055506104ea610849565b565b60008054906101000a900473ffffffffffffffffffffffffffffffffffffffff1681565b6000600854905090565b6005805461052790610b55565b80601f016020809104026020016040519081016040528092919081815260200182805461055390610b55565b80156105a05780601f10610575576101008083540402835291602001916105a0565b820191906000526020600020905b81548152906001019060200180831161058357829003601f168201915b505050505081565b6000600c60003373ffffffffffffffffffffffffffffffffffffffff1673ffffffffffffffffffffffffffffffffffffffff168152602001908152602001600020541461062a576040517f08c379a000000000000000000000000000000000000000000000000000000000815260040161062190610c3f565b60405180910390fd5b83600c60008573ffffffffffffffffffffffffffffffffffffffff1673ffffffffffffffffffffffffffffffffffffffff168152602001908152602001600020819055506001841415610694576009600081548092919061068a90610c8e565b91905055506106ad565b600a60008154809291906106a790610c8e565b91905055505b600260008154809291906106c090610c8e565b919050555080826106d19190610cd7565b600860008282546106e29190610cd7565b92505081905550600b339080600181540180825580915050600190039060005260206000200160009091909190916101000a81548173ffffffffffffffffffffffffffffffffffffffff021916908373ffffffffffffffffffffffffffffffffffffffff16021790555050505050565b6006805461075f90610b55565b80601f016020809104026020016040519081016040528092919081815260200182805461078b90610b55565b80156107d85780601f106107ad576101008083540402835291602001916107d8565b820191906000526020600020905b8154815290600101906020018083116107bb57829003601f168201915b505050505081565b60015481565b600b81815481106107f657600080fd5b906000526020600020016000915054906101000a900473ffffffffffffffffffffffffffffffffffffffff1681565b60035481565b60025481565b600c6020528060005260406000206000915090505481565b610851610873565b61085961087d565b11610865576001610868565b60025b60ff16600381905550565b6000600a54905090565b6000600954905090565b600081519050919050565b600082825260208201905092915050565b60005b838110156108c15780820151818401526020810190506108a6565b838111156108d0576000848401525b50505050565b6000601f19601f8301169050919050565b60006108f282610887565b6108fc8185610892565b935061090c8185602086016108a3565b610915816108d6565b840191505092915050565b6000602082019050818103600083015261093a81846108e7565b905092915050565b60008115159050919050565b61095781610942565b82525050565b6000602082019050610972600083018461094e565b92915050565b600080fd5b600073ffffffffffffffffffffffffffffffffffffffff82169050919050565b60006109a88261097d565b9050919050565b6109b88161099d565b81146109c357600080fd5b50565b6000813590506109d5816109af565b92915050565b6000602082840312156109f1576109f0610978565b5b60006109ff848285016109c6565b91505092915050565b6000819050919050565b610a1b81610a08565b82525050565b6000602082019050610a366000830184610a12565b92915050565b610a458161099d565b82525050565b6000602082019050610a606000830184610a3c565b92915050565b610a6f81610a08565b8114610a7a57600080fd5b50565b600081359050610a8c81610a66565b92915050565b60008060008060808587031215610aac57610aab610978565b5b6000610aba87828801610a7d565b9450506020610acb878288016109c6565b9350506040610adc87828801610a7d565b9250506060610aed87828801610a7d565b91505092959194509250565b600060208284031215610b0f57610b0e610978565b5b6000610b1d84828501610a7d565b91505092915050565b7f4e487b7100000000000000000000000000000000000000000000000000000000600052602260045260246000fd5b60006002820490506001821680610b6d57607f821691505b60208210811415610b8157610b80610b26565b5b50919050565b7f41646472657373206d757374206265206f776e65720000000000000000000000600082015250565b6000610bbd601583610892565b9150610bc882610b87565b602082019050919050565b60006020820190508181036000830152610bec81610bb0565b9050919050565b7f416c726561647920766f74656400000000000000000000000000000000000000600082015250565b6000610c29600d83610892565b9150610c3482610bf3565b602082019050919050565b60006020820190508181036000830152610c5881610c1c565b9050919050565b7f4e487b7100000000000000000000000000000000000000000000000000000000600052601160045260246000fd5b6000610c9982610a08565b91507fffffffffffffffffffffffffffffffffffffffffffffffffffffffffffffffff821415610ccc57610ccb610c5f565b5b600182019050919050565b6000610ce282610a08565b9150610ced83610a08565b9250827fffffffffffffffffffffffffffffffffffffffffffffffffffffffffffffffff03821115610d2257610d21610c5f565b5b82820190509291505056fea264697066735822122017fc8d13ed65b0d06a7031d3f25fc83fb82f907cb974331923f1446b430328ea64736f6c634300080b0033a2646970667358221220ccb8e9b3987b338bc6ba5cb29100611538ae9ff990d8d76b43c0485e217e9a4364736f6c634300080b0033",
  "immutableReferences": {},
  "source": "//SPDX-License-Identifier: MIT\r\npragma solidity 0.8.11;\r\n\r\nimport \"./Question.sol\";\r\n\r\ncontract VotingGame{\r\n\r\n    address payable public owner;\r\n    \r\n    uint public fee;\r\n    uint public bid;\r\n    uint public countQuestion;\r\n\r\n    address[] public biddersArray; \r\n\r\n    mapping(address => uint) public bidders; \r\n    mapping(uint => uint) public questionBalance;\r\n    \r\n    Question[] public questions;\r\n    \r\n    constructor(){\r\n        owner = payable(msg.sender);\r\n        fee = 5 * 10 ** 16;\r\n        bid = 1 * 10 ** 18;\r\n    }\r\n\r\n    modifier onlyOwner(){\r\n        require(msg.sender == owner, \"Address must be owner\");\r\n        _;\r\n    }\r\n\r\n    function vote(uint _question, uint _option) public payable {\r\n        require(msg.value>=(fee + bid),\"Value must be greater than both bid and fee\");\r\n        questions[_question].vote(_option,msg.sender,fee,bid);\r\n        bool exists = false;\r\n        for(uint i=0; i<biddersArray.length;i++){\r\n            if(biddersArray[i]==msg.sender)\r\n                exists = true;\r\n        }\r\n        if(!exists)\r\n            biddersArray.push(msg.sender);\r\n        bidders[msg.sender]+=1;\r\n        uint sum = fee + bid;\r\n        questionBalance[_question]=sum;\r\n        withdrawFee();\r\n    }\r\n\r\n    function closeQuestion (uint _id) public {\r\n        questions[_id].closeQuestion();\r\n    }\r\n\r\n    function getQuestions() public view returns (Question[] memory) {\r\n        return questions;\r\n    }\r\n\r\n    function withdrawFee() internal {\r\n        owner.transfer(fee);\r\n    }\r\n\r\n    function returnBidders() public view returns (address[] memory){\r\n        return biddersArray;\r\n    }\r\n\r\n    function createQuestion(string memory _question, string memory _opt1, string memory _opt2) public onlyOwner(){\r\n        Question add = new Question(countQuestion,_question,_opt1,_opt2);\r\n        questions.push(add);\r\n        countQuestion++;\r\n    }\r\n\r\n    function changeFee(uint _fee) public onlyOwner(){\r\n        fee = _fee;\r\n    }\r\n\r\n    function changeBid(uint _bid) public onlyOwner(){\r\n        bid = _bid;\r\n    }\r\n\r\n    function withdraw() public onlyOwner() {\r\n        require(address(this).balance>0,\"Balance is empty\");\r\n        owner.transfer(address(this).balance);\r\n    }\r\n\r\n}",
  "sourcePath": "C:\\Users\\ralph\\OneDrive\\Desktop\\sol\\VotingApp\\app\\contracts\\VotingGame.sol",
  "compiler": {
    "name": "solc",
    "version": "0.8.11+commit.d7f03943.Emscripten.clang"
  },
  "schemaVersion": "3.4.5",
  "updatedAt": "2022-03-21T12:14:00.738Z",
  "networkType": "ethereum",
  "devdoc": {
    "kind": "dev",
    "methods": {},
    "version": 1
  },
  "userdoc": {
    "kind": "user",
    "methods": {},
    "version": 1
  }
}