{
  "contractName": "VotingGame",
  "abi": [
    {
      "inputs": [],
      "stateMutability": "nonpayable",
      "type": "constructor"
    },
    {
      "inputs": [],
      "name": "fee",
      "outputs": [
        {
          "internalType": "uint256",
          "name": "",
          "type": "uint256"
        }
      ],
      "stateMutability": "view",
      "type": "function",
      "constant": true
    },
    {
      "inputs": [],
      "name": "owner",
      "outputs": [
        {
          "internalType": "address",
          "name": "",
          "type": "address"
        }
      ],
      "stateMutability": "view",
      "type": "function",
      "constant": true
    },
    {
      "inputs": [
        {
          "internalType": "uint256",
          "name": "",
          "type": "uint256"
        }
      ],
      "name": "questions",
      "outputs": [
        {
          "internalType": "string",
          "name": "question",
          "type": "string"
        },
        {
          "internalType": "string",
          "name": "option1",
          "type": "string"
        },
        {
          "internalType": "string",
          "name": "option2",
          "type": "string"
        }
      ],
      "stateMutability": "view",
      "type": "function",
      "constant": true
    },
    {
      "inputs": [
        {
          "internalType": "string",
          "name": "_question",
          "type": "string"
        },
        {
          "internalType": "string",
          "name": "_opt1",
          "type": "string"
        },
        {
          "internalType": "string",
          "name": "_opt2",
          "type": "string"
        }
      ],
      "name": "createQuestion",
      "outputs": [],
      "stateMutability": "nonpayable",
      "type": "function"
    },
    {
      "inputs": [
        {
          "internalType": "uint256",
          "name": "_fee",
          "type": "uint256"
        }
      ],
      "name": "changeFee",
      "outputs": [],
      "stateMutability": "nonpayable",
      "type": "function"
    },
    {
      "inputs": [],
      "name": "getQuestions",
      "outputs": [
        {
          "components": [
            {
              "internalType": "string",
              "name": "question",
              "type": "string"
            },
            {
              "internalType": "string",
              "name": "option1",
              "type": "string"
            },
            {
              "internalType": "string",
              "name": "option2",
              "type": "string"
            }
          ],
          "internalType": "struct VotingGame.Question[]",
          "name": "",
          "type": "tuple[]"
        }
      ],
      "stateMutability": "view",
      "type": "function",
      "constant": true
    }
  ],
  "bytecode": "0x608060405234801561001057600080fd5b50336000806101000a81548173ffffffffffffffffffffffffffffffffffffffff021916908373ffffffffffffffffffffffffffffffffffffffff16021790555066b1a2bc2ec50000600181905550610dfc8061006e6000396000f3fe608060405234801561001057600080fd5b50600436106100625760003560e01c806331b1b978146100675780636a1db1bf146100995780638da5cb5b146100b557806397221ab7146100d3578063ddca3f43146100f1578063e93fa19c1461010f575b600080fd5b610081600480360381019061007c91906107f9565b61012b565b604051610090939291906108bf565b60405180910390f35b6100b360048036038101906100ae91906107f9565b6102fd565b005b6100bd610395565b6040516100ca919061094c565b60405180910390f35b6100db6103b9565b6040516100e89190610ad1565b60405180910390f35b6100f96105ce565b6040516101069190610b02565b60405180910390f35b61012960048036038101906101249190610c52565b6105d4565b005b6002818154811061013b57600080fd5b906000526020600020906003020160009150905080600001805461015e90610d28565b80601f016020809104026020016040519081016040528092919081815260200182805461018a90610d28565b80156101d75780601f106101ac576101008083540402835291602001916101d7565b820191906000526020600020905b8154815290600101906020018083116101ba57829003601f168201915b5050505050908060010180546101ec90610d28565b80601f016020809104026020016040519081016040528092919081815260200182805461021890610d28565b80156102655780601f1061023a57610100808354040283529160200191610265565b820191906000526020600020905b81548152906001019060200180831161024857829003601f168201915b50505050509080600201805461027a90610d28565b80601f01602080910402602001604051908101604052809291908181526020018280546102a690610d28565b80156102f35780601f106102c8576101008083540402835291602001916102f3565b820191906000526020600020905b8154815290600101906020018083116102d657829003601f168201915b5050505050905083565b60008054906101000a900473ffffffffffffffffffffffffffffffffffffffff1673ffffffffffffffffffffffffffffffffffffffff163373ffffffffffffffffffffffffffffffffffffffff161461038b576040517f08c379a000000000000000000000000000000000000000000000000000000000815260040161038290610da6565b60405180910390fd5b8060018190555050565b60008054906101000a900473ffffffffffffffffffffffffffffffffffffffff1681565b60606002805480602002602001604051908101604052809291908181526020016000905b828210156105c5578382906000526020600020906003020160405180606001604052908160008201805461041090610d28565b80601f016020809104026020016040519081016040528092919081815260200182805461043c90610d28565b80156104895780601f1061045e57610100808354040283529160200191610489565b820191906000526020600020905b81548152906001019060200180831161046c57829003601f168201915b505050505081526020016001820180546104a290610d28565b80601f01602080910402602001604051908101604052809291908181526020018280546104ce90610d28565b801561051b5780601f106104f05761010080835404028352916020019161051b565b820191906000526020600020905b8154815290600101906020018083116104fe57829003601f168201915b5050505050815260200160028201805461053490610d28565b80601f016020809104026020016040519081016040528092919081815260200182805461056090610d28565b80156105ad5780601f10610582576101008083540402835291602001916105ad565b820191906000526020600020905b81548152906001019060200180831161059057829003601f168201915b505050505081525050815260200190600101906103dd565b50505050905090565b60015481565b60008054906101000a900473ffffffffffffffffffffffffffffffffffffffff1673ffffffffffffffffffffffffffffffffffffffff163373ffffffffffffffffffffffffffffffffffffffff1614610662576040517f08c379a000000000000000000000000000000000000000000000000000000000815260040161065990610da6565b60405180910390fd5b60006040518060600160405280858152602001848152602001838152509050600281908060018154018082558091505060019003906000526020600020906003020160009091909190915060008201518160000190805190602001906106c992919061070c565b5060208201518160010190805190602001906106e692919061070c565b50604082015181600201908051906020019061070392919061070c565b50505050505050565b82805461071890610d28565b90600052602060002090601f01602090048101928261073a5760008555610781565b82601f1061075357805160ff1916838001178555610781565b82800160010185558215610781579182015b82811115610780578251825591602001919060010190610765565b5b50905061078e9190610792565b5090565b5b808211156107ab576000816000905550600101610793565b5090565b6000604051905090565b600080fd5b600080fd5b6000819050919050565b6107d6816107c3565b81146107e157600080fd5b50565b6000813590506107f3816107cd565b92915050565b60006020828403121561080f5761080e6107b9565b5b600061081d848285016107e4565b91505092915050565b600081519050919050565b600082825260208201905092915050565b60005b83811015610860578082015181840152602081019050610845565b8381111561086f576000848401525b50505050565b6000601f19601f8301169050919050565b600061089182610826565b61089b8185610831565b93506108ab818560208601610842565b6108b481610875565b840191505092915050565b600060608201905081810360008301526108d98186610886565b905081810360208301526108ed8185610886565b905081810360408301526109018184610886565b9050949350505050565b600073ffffffffffffffffffffffffffffffffffffffff82169050919050565b60006109368261090b565b9050919050565b6109468161092b565b82525050565b6000602082019050610961600083018461093d565b92915050565b600081519050919050565b600082825260208201905092915050565b6000819050602082019050919050565b600082825260208201905092915050565b60006109af82610826565b6109b98185610993565b93506109c9818560208601610842565b6109d281610875565b840191505092915050565b600060608301600083015184820360008601526109fa82826109a4565b91505060208301518482036020860152610a1482826109a4565b91505060408301518482036040860152610a2e82826109a4565b9150508091505092915050565b6000610a4783836109dd565b905092915050565b6000602082019050919050565b6000610a6782610967565b610a718185610972565b935083602082028501610a8385610983565b8060005b85811015610abf5784840389528151610aa08582610a3b565b9450610aab83610a4f565b925060208a01995050600181019050610a87565b50829750879550505050505092915050565b60006020820190508181036000830152610aeb8184610a5c565b905092915050565b610afc816107c3565b82525050565b6000602082019050610b176000830184610af3565b92915050565b600080fd5b600080fd5b7f4e487b7100000000000000000000000000000000000000000000000000000000600052604160045260246000fd5b610b5f82610875565b810181811067ffffffffffffffff82111715610b7e57610b7d610b27565b5b80604052505050565b6000610b916107af565b9050610b9d8282610b56565b919050565b600067ffffffffffffffff821115610bbd57610bbc610b27565b5b610bc682610875565b9050602081019050919050565b82818337600083830152505050565b6000610bf5610bf084610ba2565b610b87565b905082815260208101848484011115610c1157610c10610b22565b5b610c1c848285610bd3565b509392505050565b600082601f830112610c3957610c38610b1d565b5b8135610c49848260208601610be2565b91505092915050565b600080600060608486031215610c6b57610c6a6107b9565b5b600084013567ffffffffffffffff811115610c8957610c886107be565b5b610c9586828701610c24565b935050602084013567ffffffffffffffff811115610cb657610cb56107be565b5b610cc286828701610c24565b925050604084013567ffffffffffffffff811115610ce357610ce26107be565b5b610cef86828701610c24565b9150509250925092565b7f4e487b7100000000000000000000000000000000000000000000000000000000600052602260045260246000fd5b60006002820490506001821680610d4057607f821691505b60208210811415610d5457610d53610cf9565b5b50919050565b7f41646472657373206d757374206265206f776e65720000000000000000000000600082015250565b6000610d90601583610831565b9150610d9b82610d5a565b602082019050919050565b60006020820190508181036000830152610dbf81610d83565b905091905056fea264697066735822122001e46b61dcafe398d2c7f6bf476fa2d009cbcd41507b8a2be5d767636d3207bb64736f6c634300080b0033",
  "immutableReferences": {},
  "source": "//SPDX-License-Identifier: MIT\r\npragma solidity 0.8.11;\r\n\r\ncontract VotingGame{\r\n\r\n    address public owner;\r\n    uint public fee;\r\n\r\n    struct Question {\r\n        string question;\r\n        string option1;\r\n        string option2;\r\n    }\r\n\r\n    Question[] public questions;\r\n\r\n    constructor(){\r\n        owner = msg.sender;\r\n        fee = 5 * 10 ** 16;\r\n    }\r\n\r\n\r\n\r\n    modifier onlyOwner(){\r\n        require(msg.sender == owner, \"Address must be owner\");\r\n        _;\r\n    }\r\n\r\n    function createQuestion(string memory _question, string memory _opt1, string memory _opt2) public onlyOwner(){\r\n        Question memory add = Question(_question,_opt1,_opt2);\r\n        questions.push(add);\r\n    }\r\n\r\n    function changeFee(uint _fee) public onlyOwner(){\r\n        fee = _fee;\r\n    }\r\n    \r\n    function getQuestions() public view returns (Question[] memory) {\r\n        return questions;\r\n    }\r\n}",
  "sourcePath": "C:\\Users\\ralph\\OneDrive\\Desktop\\sol\\VotingApp\\app\\contracts\\VotingGame.sol",
  "compiler": {
    "name": "solc",
    "version": "0.8.11+commit.d7f03943.Emscripten.clang"
  },
  "schemaVersion": "3.4.5",
  "updatedAt": "2022-03-19T14:25:03.155Z",
  "networkType": "ethereum",
  "devdoc": {
    "kind": "dev",
    "methods": {},
    "version": 1
  },
  "userdoc": {
    "kind": "user",
    "methods": {},
    "version": 1
  }
}