{
  "contractName": "VotingGame",
  "abi": [
    {
      "inputs": [],
      "stateMutability": "nonpayable",
      "type": "constructor"
    },
    {
      "inputs": [],
      "name": "bid",
      "outputs": [
        {
          "internalType": "uint256",
          "name": "",
          "type": "uint256"
        }
      ],
      "stateMutability": "view",
      "type": "function",
      "constant": true
    },
    {
      "inputs": [
        {
          "internalType": "address",
          "name": "",
          "type": "address"
        }
      ],
      "name": "bidders",
      "outputs": [
        {
          "internalType": "uint256",
          "name": "",
          "type": "uint256"
        }
      ],
      "stateMutability": "view",
      "type": "function",
      "constant": true
    },
    {
      "inputs": [],
      "name": "countQuestion",
      "outputs": [
        {
          "internalType": "uint256",
          "name": "",
          "type": "uint256"
        }
      ],
      "stateMutability": "view",
      "type": "function",
      "constant": true
    },
    {
      "inputs": [],
      "name": "fee",
      "outputs": [
        {
          "internalType": "uint256",
          "name": "",
          "type": "uint256"
        }
      ],
      "stateMutability": "view",
      "type": "function",
      "constant": true
    },
    {
      "inputs": [],
      "name": "owner",
      "outputs": [
        {
          "internalType": "address payable",
          "name": "",
          "type": "address"
        }
      ],
      "stateMutability": "view",
      "type": "function",
      "constant": true
    },
    {
      "inputs": [
        {
          "internalType": "uint256",
          "name": "",
          "type": "uint256"
        }
      ],
      "name": "questions",
      "outputs": [
        {
          "internalType": "uint256",
          "name": "id",
          "type": "uint256"
        },
        {
          "internalType": "string",
          "name": "question",
          "type": "string"
        },
        {
          "internalType": "string",
          "name": "option1",
          "type": "string"
        },
        {
          "internalType": "string",
          "name": "option2",
          "type": "string"
        },
        {
          "internalType": "uint256",
          "name": "voted1",
          "type": "uint256"
        },
        {
          "internalType": "uint256",
          "name": "voted2",
          "type": "uint256"
        }
      ],
      "stateMutability": "view",
      "type": "function",
      "constant": true
    },
    {
      "inputs": [
        {
          "internalType": "uint256",
          "name": "_question",
          "type": "uint256"
        },
        {
          "internalType": "uint256",
          "name": "_option",
          "type": "uint256"
        }
      ],
      "name": "vote",
      "outputs": [],
      "stateMutability": "payable",
      "type": "function",
      "payable": true
    },
    {
      "inputs": [],
      "name": "getQuestions",
      "outputs": [
        {
          "components": [
            {
              "internalType": "uint256",
              "name": "id",
              "type": "uint256"
            },
            {
              "internalType": "string",
              "name": "question",
              "type": "string"
            },
            {
              "internalType": "string",
              "name": "option1",
              "type": "string"
            },
            {
              "internalType": "string",
              "name": "option2",
              "type": "string"
            },
            {
              "internalType": "uint256",
              "name": "voted1",
              "type": "uint256"
            },
            {
              "internalType": "uint256",
              "name": "voted2",
              "type": "uint256"
            }
          ],
          "internalType": "struct VotingGame.Question[]",
          "name": "",
          "type": "tuple[]"
        }
      ],
      "stateMutability": "view",
      "type": "function",
      "constant": true
    },
    {
      "inputs": [
        {
          "internalType": "string",
          "name": "_question",
          "type": "string"
        },
        {
          "internalType": "string",
          "name": "_opt1",
          "type": "string"
        },
        {
          "internalType": "string",
          "name": "_opt2",
          "type": "string"
        }
      ],
      "name": "createQuestion",
      "outputs": [],
      "stateMutability": "nonpayable",
      "type": "function"
    },
    {
      "inputs": [
        {
          "internalType": "uint256",
          "name": "_fee",
          "type": "uint256"
        }
      ],
      "name": "changeFee",
      "outputs": [],
      "stateMutability": "nonpayable",
      "type": "function"
    },
    {
      "inputs": [
        {
          "internalType": "uint256",
          "name": "_bid",
          "type": "uint256"
        }
      ],
      "name": "changeBid",
      "outputs": [],
      "stateMutability": "nonpayable",
      "type": "function"
    },
    {
      "inputs": [],
      "name": "withdraw",
      "outputs": [],
      "stateMutability": "nonpayable",
      "type": "function"
    }
  ],
  "bytecode": "0x608060405234801561001057600080fd5b50336000806101000a81548173ffffffffffffffffffffffffffffffffffffffff021916908373ffffffffffffffffffffffffffffffffffffffff16021790555066b1a2bc2ec50000600181905550670de0b6b3a76400006002819055506116598061007d6000396000f3fe6080604052600436106100a75760003560e01c80638da5cb5b116100645780638da5cb5b146101ad57806397221ab7146101d8578063b384abef14610203578063ddca3f431461021f578063e93fa19c1461024a578063fcc8f79314610273576100a7565b80631998aeef146100ac57806331b1b978146100d75780633ccfd60b146101195780634c05a51b1461013057806356fd3a511461015b5780636a1db1bf14610184575b600080fd5b3480156100b857600080fd5b506100c16102b0565b6040516100ce9190610d0d565b60405180910390f35b3480156100e357600080fd5b506100fe60048036038101906100f99190610d68565b6102b6565b60405161011096959493929190610e2e565b60405180910390f35b34801561012557600080fd5b5061012e61049a565b005b34801561013c57600080fd5b506101456105d4565b6040516101529190610d0d565b60405180910390f35b34801561016757600080fd5b50610182600480360381019061017d9190610d68565b6105da565b005b34801561019057600080fd5b506101ab60048036038101906101a69190610d68565b610672565b005b3480156101b957600080fd5b506101c261070a565b6040516101cf9190610ee5565b60405180910390f35b3480156101e457600080fd5b506101ed61072e565b6040516101fa91906110b2565b60405180910390f35b61021d600480360381019061021891906110d4565b610961565b005b34801561022b57600080fd5b50610234610a44565b6040516102419190610d0d565b60405180910390f35b34801561025657600080fd5b50610271600480360381019061026c9190611249565b610a4a565b005b34801561027f57600080fd5b5061029a6004803603810190610295919061132e565b610bce565b6040516102a79190610d0d565b60405180910390f35b60025481565b600581815481106102c657600080fd5b90600052602060002090600602016000915090508060000154908060010180546102ef9061138a565b80601f016020809104026020016040519081016040528092919081815260200182805461031b9061138a565b80156103685780601f1061033d57610100808354040283529160200191610368565b820191906000526020600020905b81548152906001019060200180831161034b57829003601f168201915b50505050509080600201805461037d9061138a565b80601f01602080910402602001604051908101604052809291908181526020018280546103a99061138a565b80156103f65780601f106103cb576101008083540402835291602001916103f6565b820191906000526020600020905b8154815290600101906020018083116103d957829003601f168201915b50505050509080600301805461040b9061138a565b80601f01602080910402602001604051908101604052809291908181526020018280546104379061138a565b80156104845780601f1061045957610100808354040283529160200191610484565b820191906000526020600020905b81548152906001019060200180831161046757829003601f168201915b5050505050908060040154908060050154905086565b60008054906101000a900473ffffffffffffffffffffffffffffffffffffffff1673ffffffffffffffffffffffffffffffffffffffff163373ffffffffffffffffffffffffffffffffffffffff1614610528576040517f08c379a000000000000000000000000000000000000000000000000000000000815260040161051f90611408565b60405180910390fd5b6000471161056b576040517f08c379a000000000000000000000000000000000000000000000000000000000815260040161056290611474565b60405180910390fd5b60008054906101000a900473ffffffffffffffffffffffffffffffffffffffff1673ffffffffffffffffffffffffffffffffffffffff166108fc479081150290604051600060405180830381858888f193505050501580156105d1573d6000803e3d6000fd5b50565b60035481565b60008054906101000a900473ffffffffffffffffffffffffffffffffffffffff1673ffffffffffffffffffffffffffffffffffffffff163373ffffffffffffffffffffffffffffffffffffffff1614610668576040517f08c379a000000000000000000000000000000000000000000000000000000000815260040161065f90611408565b60405180910390fd5b8060028190555050565b60008054906101000a900473ffffffffffffffffffffffffffffffffffffffff1673ffffffffffffffffffffffffffffffffffffffff163373ffffffffffffffffffffffffffffffffffffffff1614610700576040517f08c379a00000000000000000000000000000000000000000000000000000000081526004016106f790611408565b60405180910390fd5b8060018190555050565b60008054906101000a900473ffffffffffffffffffffffffffffffffffffffff1681565b60606005805480602002602001604051908101604052809291908181526020016000905b8282101561095857838290600052602060002090600602016040518060c00160405290816000820154815260200160018201805461078f9061138a565b80601f01602080910402602001604051908101604052809291908181526020018280546107bb9061138a565b80156108085780601f106107dd57610100808354040283529160200191610808565b820191906000526020600020905b8154815290600101906020018083116107eb57829003601f168201915b505050505081526020016002820180546108219061138a565b80601f016020809104026020016040519081016040528092919081815260200182805461084d9061138a565b801561089a5780601f1061086f5761010080835404028352916020019161089a565b820191906000526020600020905b81548152906001019060200180831161087d57829003601f168201915b505050505081526020016003820180546108b39061138a565b80601f01602080910402602001604051908101604052809291908181526020018280546108df9061138a565b801561092c5780601f106109015761010080835404028352916020019161092c565b820191906000526020600020905b81548152906001019060200180831161090f57829003601f168201915b505050505081526020016004820154815260200160058201548152505081526020019060010190610752565b50505050905090565b60025460015461097191906114c3565b3410156109b3576040517f08c379a00000000000000000000000000000000000000000000000000000000081526004016109aa9061158b565b60405180910390fd5b60018114156109fc57600582815481106109d0576109cf6115ab565b5b906000526020600020906006020160040160008154809291906109f2906115da565b9190505550610a38565b60058281548110610a1057610a0f6115ab565b5b90600052602060002090600602016005016000815480929190610a32906115da565b91905055505b610a40610be6565b5050565b60015481565b60008054906101000a900473ffffffffffffffffffffffffffffffffffffffff1673ffffffffffffffffffffffffffffffffffffffff163373ffffffffffffffffffffffffffffffffffffffff1614610ad8576040517f08c379a0000000000000000000000000000000000000000000000000000000008152600401610acf90611408565b60405180910390fd5b60006040518060c00160405280600354815260200185815260200184815260200183815260200160008152602001600081525090506005819080600181540180825580915050600190039060005260206000209060060201600090919091909150600082015181600001556020820151816001019080519060200190610b5f929190610c51565b506040820151816002019080519060200190610b7c929190610c51565b506060820151816003019080519060200190610b99929190610c51565b506080820151816004015560a08201518160050155505060036000815480929190610bc3906115da565b919050555050505050565b60046020528060005260406000206000915090505481565b60008054906101000a900473ffffffffffffffffffffffffffffffffffffffff1673ffffffffffffffffffffffffffffffffffffffff166108fc6001549081150290604051600060405180830381858888f19350505050158015610c4e573d6000803e3d6000fd5b50565b828054610c5d9061138a565b90600052602060002090601f016020900481019282610c7f5760008555610cc6565b82601f10610c9857805160ff1916838001178555610cc6565b82800160010185558215610cc6579182015b82811115610cc5578251825591602001919060010190610caa565b5b509050610cd39190610cd7565b5090565b5b80821115610cf0576000816000905550600101610cd8565b5090565b6000819050919050565b610d0781610cf4565b82525050565b6000602082019050610d226000830184610cfe565b92915050565b6000604051905090565b600080fd5b600080fd5b610d4581610cf4565b8114610d5057600080fd5b50565b600081359050610d6281610d3c565b92915050565b600060208284031215610d7e57610d7d610d32565b5b6000610d8c84828501610d53565b91505092915050565b600081519050919050565b600082825260208201905092915050565b60005b83811015610dcf578082015181840152602081019050610db4565b83811115610dde576000848401525b50505050565b6000601f19601f8301169050919050565b6000610e0082610d95565b610e0a8185610da0565b9350610e1a818560208601610db1565b610e2381610de4565b840191505092915050565b600060c082019050610e436000830189610cfe565b8181036020830152610e558188610df5565b90508181036040830152610e698187610df5565b90508181036060830152610e7d8186610df5565b9050610e8c6080830185610cfe565b610e9960a0830184610cfe565b979650505050505050565b600073ffffffffffffffffffffffffffffffffffffffff82169050919050565b6000610ecf82610ea4565b9050919050565b610edf81610ec4565b82525050565b6000602082019050610efa6000830184610ed6565b92915050565b600081519050919050565b600082825260208201905092915050565b6000819050602082019050919050565b610f3581610cf4565b82525050565b600082825260208201905092915050565b6000610f5782610d95565b610f618185610f3b565b9350610f71818560208601610db1565b610f7a81610de4565b840191505092915050565b600060c083016000830151610f9d6000860182610f2c565b5060208301518482036020860152610fb58282610f4c565b91505060408301518482036040860152610fcf8282610f4c565b91505060608301518482036060860152610fe98282610f4c565b9150506080830151610ffe6080860182610f2c565b5060a083015161101160a0860182610f2c565b508091505092915050565b60006110288383610f85565b905092915050565b6000602082019050919050565b600061104882610f00565b6110528185610f0b565b93508360208202850161106485610f1c565b8060005b858110156110a05784840389528151611081858261101c565b945061108c83611030565b925060208a01995050600181019050611068565b50829750879550505050505092915050565b600060208201905081810360008301526110cc818461103d565b905092915050565b600080604083850312156110eb576110ea610d32565b5b60006110f985828601610d53565b925050602061110a85828601610d53565b9150509250929050565b600080fd5b600080fd5b7f4e487b7100000000000000000000000000000000000000000000000000000000600052604160045260246000fd5b61115682610de4565b810181811067ffffffffffffffff821117156111755761117461111e565b5b80604052505050565b6000611188610d28565b9050611194828261114d565b919050565b600067ffffffffffffffff8211156111b4576111b361111e565b5b6111bd82610de4565b9050602081019050919050565b82818337600083830152505050565b60006111ec6111e784611199565b61117e565b90508281526020810184848401111561120857611207611119565b5b6112138482856111ca565b509392505050565b600082601f8301126112305761122f611114565b5b81356112408482602086016111d9565b91505092915050565b60008060006060848603121561126257611261610d32565b5b600084013567ffffffffffffffff8111156112805761127f610d37565b5b61128c8682870161121b565b935050602084013567ffffffffffffffff8111156112ad576112ac610d37565b5b6112b98682870161121b565b925050604084013567ffffffffffffffff8111156112da576112d9610d37565b5b6112e68682870161121b565b9150509250925092565b60006112fb82610ea4565b9050919050565b61130b816112f0565b811461131657600080fd5b50565b60008135905061132881611302565b92915050565b60006020828403121561134457611343610d32565b5b600061135284828501611319565b91505092915050565b7f4e487b7100000000000000000000000000000000000000000000000000000000600052602260045260246000fd5b600060028204905060018216806113a257607f821691505b602082108114156113b6576113b561135b565b5b50919050565b7f41646472657373206d757374206265206f776e65720000000000000000000000600082015250565b60006113f2601583610da0565b91506113fd826113bc565b602082019050919050565b60006020820190508181036000830152611421816113e5565b9050919050565b7f42616c616e636520697320656d70747900000000000000000000000000000000600082015250565b600061145e601083610da0565b915061146982611428565b602082019050919050565b6000602082019050818103600083015261148d81611451565b9050919050565b7f4e487b7100000000000000000000000000000000000000000000000000000000600052601160045260246000fd5b60006114ce82610cf4565b91506114d983610cf4565b9250827fffffffffffffffffffffffffffffffffffffffffffffffffffffffffffffffff0382111561150e5761150d611494565b5b828201905092915050565b7f56616c7565206d7573742062652067726561746572207468616e20626f74682060008201527f62696420616e6420666565000000000000000000000000000000000000000000602082015250565b6000611575602b83610da0565b915061158082611519565b604082019050919050565b600060208201905081810360008301526115a481611568565b9050919050565b7f4e487b7100000000000000000000000000000000000000000000000000000000600052603260045260246000fd5b60006115e582610cf4565b91507fffffffffffffffffffffffffffffffffffffffffffffffffffffffffffffffff82141561161857611617611494565b5b60018201905091905056fea264697066735822122094b983537df5382e2a28187db5adb61964a234a73f82db3a2a528df117dab9de64736f6c634300080b0033",
  "immutableReferences": {},
  "source": "//SPDX-License-Identifier: MIT\r\npragma solidity 0.8.11;\r\n\r\ncontract VotingGame{\r\n\r\n    address payable public owner;\r\n    \r\n    uint public fee;\r\n    uint public bid;\r\n    uint public countQuestion;\r\n\r\n    mapping(address => uint) public bidders; \r\n\r\n    struct Question {\r\n        uint id;\r\n        string question;\r\n        string option1;\r\n        string option2;\r\n        uint voted1;\r\n        uint voted2;\r\n    }\r\n\r\n    Question[] public questions;\r\n    \r\n    constructor(){\r\n        owner = payable(msg.sender);\r\n        fee = 5 * 10 ** 16;\r\n        bid = 1 * 10 ** 18;\r\n    }\r\n\r\n\r\n\r\n    modifier onlyOwner(){\r\n        require(msg.sender == owner, \"Address must be owner\");\r\n        _;\r\n    }\r\n\r\n    function vote(uint _question, uint _option) public payable {\r\n        require(msg.value>=(fee + bid),\"Value must be greater than both bid and fee\");\r\n        if(_option == 1){\r\n            questions[_question].voted1++;\r\n        }\r\n        else{\r\n            questions[_question].voted2++;\r\n        }\r\n        withdrawFee();\r\n    }\r\n\r\n    function getQuestions() public view returns (Question[] memory) {\r\n        return questions;\r\n    }\r\n\r\n    function createQuestion(string memory _question, string memory _opt1, string memory _opt2) public onlyOwner(){\r\n        Question memory add = Question(countQuestion,_question,_opt1,_opt2,0,0);\r\n        questions.push(add);\r\n        countQuestion++;\r\n    }\r\n\r\n    function changeFee(uint _fee) public onlyOwner(){\r\n        fee = _fee;\r\n    }\r\n\r\n    function changeBid(uint _bid) public onlyOwner(){\r\n        bid = _bid;\r\n    }\r\n\r\n    function withdrawFee() internal {\r\n        owner.transfer(fee);\r\n    }\r\n\r\n    function withdraw() public onlyOwner() {\r\n        require(address(this).balance>0,\"Balance is empty\");\r\n        owner.transfer(address(this).balance);\r\n    }\r\n}",
  "sourcePath": "C:\\Users\\ralph\\OneDrive\\Desktop\\sol\\VotingApp\\app\\contracts\\VotingGame.sol",
  "compiler": {
    "name": "solc",
    "version": "0.8.11+commit.d7f03943.Emscripten.clang"
  },
  "schemaVersion": "3.4.5",
  "updatedAt": "2022-03-20T09:06:20.227Z",
  "networkType": "ethereum",
  "devdoc": {
    "kind": "dev",
    "methods": {},
    "version": 1
  },
  "userdoc": {
    "kind": "user",
    "methods": {},
    "version": 1
  }
}