{
  "contractName": "VotingGame",
  "abi": [
    {
      "inputs": [],
      "stateMutability": "nonpayable",
      "type": "constructor"
    },
    {
      "inputs": [],
      "name": "bid",
      "outputs": [
        {
          "internalType": "uint256",
          "name": "",
          "type": "uint256"
        }
      ],
      "stateMutability": "view",
      "type": "function",
      "constant": true
    },
    {
      "inputs": [
        {
          "internalType": "address",
          "name": "",
          "type": "address"
        }
      ],
      "name": "bidders",
      "outputs": [
        {
          "internalType": "uint256",
          "name": "",
          "type": "uint256"
        }
      ],
      "stateMutability": "view",
      "type": "function",
      "constant": true
    },
    {
      "inputs": [],
      "name": "countQuestion",
      "outputs": [
        {
          "internalType": "uint256",
          "name": "",
          "type": "uint256"
        }
      ],
      "stateMutability": "view",
      "type": "function",
      "constant": true
    },
    {
      "inputs": [],
      "name": "fee",
      "outputs": [
        {
          "internalType": "uint256",
          "name": "",
          "type": "uint256"
        }
      ],
      "stateMutability": "view",
      "type": "function",
      "constant": true
    },
    {
      "inputs": [],
      "name": "owner",
      "outputs": [
        {
          "internalType": "address",
          "name": "",
          "type": "address"
        }
      ],
      "stateMutability": "view",
      "type": "function",
      "constant": true
    },
    {
      "inputs": [
        {
          "internalType": "uint256",
          "name": "",
          "type": "uint256"
        }
      ],
      "name": "questions",
      "outputs": [
        {
          "internalType": "uint256",
          "name": "id",
          "type": "uint256"
        },
        {
          "internalType": "string",
          "name": "question",
          "type": "string"
        },
        {
          "internalType": "string",
          "name": "option1",
          "type": "string"
        },
        {
          "internalType": "string",
          "name": "option2",
          "type": "string"
        },
        {
          "internalType": "uint256",
          "name": "voted1",
          "type": "uint256"
        },
        {
          "internalType": "uint256",
          "name": "voted2",
          "type": "uint256"
        }
      ],
      "stateMutability": "view",
      "type": "function",
      "constant": true
    },
    {
      "inputs": [
        {
          "internalType": "uint256",
          "name": "_question",
          "type": "uint256"
        },
        {
          "internalType": "uint256",
          "name": "_option",
          "type": "uint256"
        }
      ],
      "name": "vote",
      "outputs": [],
      "stateMutability": "nonpayable",
      "type": "function"
    },
    {
      "inputs": [
        {
          "internalType": "string",
          "name": "_question",
          "type": "string"
        },
        {
          "internalType": "string",
          "name": "_opt1",
          "type": "string"
        },
        {
          "internalType": "string",
          "name": "_opt2",
          "type": "string"
        }
      ],
      "name": "createQuestion",
      "outputs": [],
      "stateMutability": "nonpayable",
      "type": "function"
    },
    {
      "inputs": [
        {
          "internalType": "uint256",
          "name": "_fee",
          "type": "uint256"
        }
      ],
      "name": "changeFee",
      "outputs": [],
      "stateMutability": "nonpayable",
      "type": "function"
    },
    {
      "inputs": [
        {
          "internalType": "uint256",
          "name": "_bid",
          "type": "uint256"
        }
      ],
      "name": "changeBid",
      "outputs": [],
      "stateMutability": "nonpayable",
      "type": "function"
    },
    {
      "inputs": [],
      "name": "getQuestions",
      "outputs": [
        {
          "components": [
            {
              "internalType": "uint256",
              "name": "id",
              "type": "uint256"
            },
            {
              "internalType": "string",
              "name": "question",
              "type": "string"
            },
            {
              "internalType": "string",
              "name": "option1",
              "type": "string"
            },
            {
              "internalType": "string",
              "name": "option2",
              "type": "string"
            },
            {
              "internalType": "uint256",
              "name": "voted1",
              "type": "uint256"
            },
            {
              "internalType": "uint256",
              "name": "voted2",
              "type": "uint256"
            },
            {
              "internalType": "address[]",
              "name": "voted1Addresses",
              "type": "address[]"
            },
            {
              "internalType": "address[]",
              "name": "voted2Addresses",
              "type": "address[]"
            }
          ],
          "internalType": "struct VotingGame.Question[]",
          "name": "",
          "type": "tuple[]"
        }
      ],
      "stateMutability": "view",
      "type": "function",
      "constant": true
    }
  ],
  "bytecode": "0x608060405234801561001057600080fd5b50336000806101000a81548173ffffffffffffffffffffffffffffffffffffffff021916908373ffffffffffffffffffffffffffffffffffffffff16021790555066b1a2bc2ec50000600181905550670de0b6b3a76400006002819055506115d08061007d6000396000f3fe608060405234801561001057600080fd5b50600436106100a95760003560e01c80638da5cb5b116100715780638da5cb5b1461015757806397221ab714610175578063b384abef14610193578063ddca3f43146101af578063e93fa19c146101cd578063fcc8f793146101e9576100a9565b80631998aeef146100ae57806331b1b978146100cc5780634c05a51b1461010157806356fd3a511461011f5780636a1db1bf1461013b575b600080fd5b6100b6610219565b6040516100c39190610cf7565b60405180910390f35b6100e660048036038101906100e19190610d52565b61021f565b6040516100f896959493929190610e18565b60405180910390f35b610109610403565b6040516101169190610cf7565b60405180910390f35b61013960048036038101906101349190610d52565b610409565b005b61015560048036038101906101509190610d52565b6104a1565b005b61015f610539565b60405161016c9190610ecf565b60405180910390f35b61017d61055d565b60405161018a919061118f565b60405180910390f35b6101ad60048036038101906101a891906111b1565b6108ad565b005b6101b7610936565b6040516101c49190610cf7565b60405180910390f35b6101e760048036038101906101e29190611326565b61093c565b005b61020360048036038101906101fe91906113f9565b610b99565b6040516102109190610cf7565b60405180910390f35b60025481565b6005818154811061022f57600080fd5b906000526020600020906008020160009150905080600001549080600101805461025890611455565b80601f016020809104026020016040519081016040528092919081815260200182805461028490611455565b80156102d15780601f106102a6576101008083540402835291602001916102d1565b820191906000526020600020905b8154815290600101906020018083116102b457829003601f168201915b5050505050908060020180546102e690611455565b80601f016020809104026020016040519081016040528092919081815260200182805461031290611455565b801561035f5780601f106103345761010080835404028352916020019161035f565b820191906000526020600020905b81548152906001019060200180831161034257829003601f168201915b50505050509080600301805461037490611455565b80601f01602080910402602001604051908101604052809291908181526020018280546103a090611455565b80156103ed5780601f106103c2576101008083540402835291602001916103ed565b820191906000526020600020905b8154815290600101906020018083116103d057829003601f168201915b5050505050908060040154908060050154905086565b60035481565b60008054906101000a900473ffffffffffffffffffffffffffffffffffffffff1673ffffffffffffffffffffffffffffffffffffffff163373ffffffffffffffffffffffffffffffffffffffff1614610497576040517f08c379a000000000000000000000000000000000000000000000000000000000815260040161048e906114d3565b60405180910390fd5b8060028190555050565b60008054906101000a900473ffffffffffffffffffffffffffffffffffffffff1673ffffffffffffffffffffffffffffffffffffffff163373ffffffffffffffffffffffffffffffffffffffff161461052f576040517f08c379a0000000000000000000000000000000000000000000000000000000008152600401610526906114d3565b60405180910390fd5b8060018190555050565b60008054906101000a900473ffffffffffffffffffffffffffffffffffffffff1681565b60606005805480602002602001604051908101604052809291908181526020016000905b828210156108a4578382906000526020600020906008020160405180610100016040529081600082015481526020016001820180546105bf90611455565b80601f01602080910402602001604051908101604052809291908181526020018280546105eb90611455565b80156106385780601f1061060d57610100808354040283529160200191610638565b820191906000526020600020905b81548152906001019060200180831161061b57829003601f168201915b5050505050815260200160028201805461065190611455565b80601f016020809104026020016040519081016040528092919081815260200182805461067d90611455565b80156106ca5780601f1061069f576101008083540402835291602001916106ca565b820191906000526020600020905b8154815290600101906020018083116106ad57829003601f168201915b505050505081526020016003820180546106e390611455565b80601f016020809104026020016040519081016040528092919081815260200182805461070f90611455565b801561075c5780601f106107315761010080835404028352916020019161075c565b820191906000526020600020905b81548152906001019060200180831161073f57829003601f168201915b505050505081526020016004820154815260200160058201548152602001600682018054806020026020016040519081016040528092919081815260200182805480156107fe57602002820191906000526020600020905b8160009054906101000a900473ffffffffffffffffffffffffffffffffffffffff1673ffffffffffffffffffffffffffffffffffffffff16815260200190600101908083116107b4575b505050505081526020016007820180548060200260200160405190810160405280929190818152602001828054801561088c57602002820191906000526020600020905b8160009054906101000a900473ffffffffffffffffffffffffffffffffffffffff1673ffffffffffffffffffffffffffffffffffffffff1681526020019060010190808311610842575b50505050508152505081526020019060010190610581565b50505050905090565b60018114156108f657600582815481106108ca576108c96114f3565b5b906000526020600020906008020160040160008154809291906108ec90611551565b9190505550610932565b6005828154811061090a576109096114f3565b5b9060005260206000209060080201600501600081548092919061092c90611551565b91905055505b5050565b60015481565b60008054906101000a900473ffffffffffffffffffffffffffffffffffffffff1673ffffffffffffffffffffffffffffffffffffffff163373ffffffffffffffffffffffffffffffffffffffff16146109ca576040517f08c379a00000000000000000000000000000000000000000000000000000000081526004016109c1906114d3565b60405180910390fd5b600060405180610100016040528060035481526020018581526020018481526020018381526020016000815260200160008152602001600067ffffffffffffffff811115610a1b57610a1a6111fb565b5b604051908082528060200260200182016040528015610a495781602001602082028036833780820191505090505b508152602001600067ffffffffffffffff811115610a6a57610a696111fb565b5b604051908082528060200260200182016040528015610a985781602001602082028036833780820191505090505b5081525090506005819080600181540180825580915050600190039060005260206000209060080201600090919091909150600082015181600001556020820151816001019080519060200190610af0929190610bb1565b506040820151816002019080519060200190610b0d929190610bb1565b506060820151816003019080519060200190610b2a929190610bb1565b506080820151816004015560a0820151816005015560c0820151816006019080519060200190610b5b929190610c37565b5060e0820151816007019080519060200190610b78929190610c37565b50505060036000815480929190610b8e90611551565b919050555050505050565b60046020528060005260406000206000915090505481565b828054610bbd90611455565b90600052602060002090601f016020900481019282610bdf5760008555610c26565b82601f10610bf857805160ff1916838001178555610c26565b82800160010185558215610c26579182015b82811115610c25578251825591602001919060010190610c0a565b5b509050610c339190610cc1565b5090565b828054828255906000526020600020908101928215610cb0579160200282015b82811115610caf5782518260006101000a81548173ffffffffffffffffffffffffffffffffffffffff021916908373ffffffffffffffffffffffffffffffffffffffff16021790555091602001919060010190610c57565b5b509050610cbd9190610cc1565b5090565b5b80821115610cda576000816000905550600101610cc2565b5090565b6000819050919050565b610cf181610cde565b82525050565b6000602082019050610d0c6000830184610ce8565b92915050565b6000604051905090565b600080fd5b600080fd5b610d2f81610cde565b8114610d3a57600080fd5b50565b600081359050610d4c81610d26565b92915050565b600060208284031215610d6857610d67610d1c565b5b6000610d7684828501610d3d565b91505092915050565b600081519050919050565b600082825260208201905092915050565b60005b83811015610db9578082015181840152602081019050610d9e565b83811115610dc8576000848401525b50505050565b6000601f19601f8301169050919050565b6000610dea82610d7f565b610df48185610d8a565b9350610e04818560208601610d9b565b610e0d81610dce565b840191505092915050565b600060c082019050610e2d6000830189610ce8565b8181036020830152610e3f8188610ddf565b90508181036040830152610e538187610ddf565b90508181036060830152610e678186610ddf565b9050610e766080830185610ce8565b610e8360a0830184610ce8565b979650505050505050565b600073ffffffffffffffffffffffffffffffffffffffff82169050919050565b6000610eb982610e8e565b9050919050565b610ec981610eae565b82525050565b6000602082019050610ee46000830184610ec0565b92915050565b600081519050919050565b600082825260208201905092915050565b6000819050602082019050919050565b610f1f81610cde565b82525050565b600082825260208201905092915050565b6000610f4182610d7f565b610f4b8185610f25565b9350610f5b818560208601610d9b565b610f6481610dce565b840191505092915050565b600081519050919050565b600082825260208201905092915050565b6000819050602082019050919050565b610fa481610eae565b82525050565b6000610fb68383610f9b565b60208301905092915050565b6000602082019050919050565b6000610fda82610f6f565b610fe48185610f7a565b9350610fef83610f8b565b8060005b838110156110205781516110078882610faa565b975061101283610fc2565b925050600181019050610ff3565b5085935050505092915050565b6000610100830160008301516110466000860182610f16565b506020830151848203602086015261105e8282610f36565b915050604083015184820360408601526110788282610f36565b915050606083015184820360608601526110928282610f36565b91505060808301516110a76080860182610f16565b5060a08301516110ba60a0860182610f16565b5060c083015184820360c08601526110d28282610fcf565b91505060e083015184820360e08601526110ec8282610fcf565b9150508091505092915050565b6000611105838361102d565b905092915050565b6000602082019050919050565b600061112582610eea565b61112f8185610ef5565b93508360208202850161114185610f06565b8060005b8581101561117d578484038952815161115e85826110f9565b94506111698361110d565b925060208a01995050600181019050611145565b50829750879550505050505092915050565b600060208201905081810360008301526111a9818461111a565b905092915050565b600080604083850312156111c8576111c7610d1c565b5b60006111d685828601610d3d565b92505060206111e785828601610d3d565b9150509250929050565b600080fd5b600080fd5b7f4e487b7100000000000000000000000000000000000000000000000000000000600052604160045260246000fd5b61123382610dce565b810181811067ffffffffffffffff82111715611252576112516111fb565b5b80604052505050565b6000611265610d12565b9050611271828261122a565b919050565b600067ffffffffffffffff821115611291576112906111fb565b5b61129a82610dce565b9050602081019050919050565b82818337600083830152505050565b60006112c96112c484611276565b61125b565b9050828152602081018484840111156112e5576112e46111f6565b5b6112f08482856112a7565b509392505050565b600082601f83011261130d5761130c6111f1565b5b813561131d8482602086016112b6565b91505092915050565b60008060006060848603121561133f5761133e610d1c565b5b600084013567ffffffffffffffff81111561135d5761135c610d21565b5b611369868287016112f8565b935050602084013567ffffffffffffffff81111561138a57611389610d21565b5b611396868287016112f8565b925050604084013567ffffffffffffffff8111156113b7576113b6610d21565b5b6113c3868287016112f8565b9150509250925092565b6113d681610eae565b81146113e157600080fd5b50565b6000813590506113f3816113cd565b92915050565b60006020828403121561140f5761140e610d1c565b5b600061141d848285016113e4565b91505092915050565b7f4e487b7100000000000000000000000000000000000000000000000000000000600052602260045260246000fd5b6000600282049050600182168061146d57607f821691505b6020821081141561148157611480611426565b5b50919050565b7f41646472657373206d757374206265206f776e65720000000000000000000000600082015250565b60006114bd601583610d8a565b91506114c882611487565b602082019050919050565b600060208201905081810360008301526114ec816114b0565b9050919050565b7f4e487b7100000000000000000000000000000000000000000000000000000000600052603260045260246000fd5b7f4e487b7100000000000000000000000000000000000000000000000000000000600052601160045260246000fd5b600061155c82610cde565b91507fffffffffffffffffffffffffffffffffffffffffffffffffffffffffffffffff82141561158f5761158e611522565b5b60018201905091905056fea2646970667358221220ea9f10dd4e392d1921c5d976848c9b3f98a5a60376f51e5787160476aa681c8364736f6c634300080b0033",
  "immutableReferences": {},
  "source": "//SPDX-License-Identifier: MIT\r\npragma solidity 0.8.11;\r\n\r\ncontract VotingGame{\r\n\r\n    address public owner;\r\n    \r\n    uint public fee;\r\n    uint public bid;\r\n    uint public countQuestion;\r\n\r\n    mapping(address => uint) public bidders; \r\n\r\n    struct Question {\r\n        uint id;\r\n        string question;\r\n        string option1;\r\n        string option2;\r\n        uint voted1;\r\n        uint voted2;\r\n        address[] voted1Addresses;\r\n        address[] voted2Addresses;\r\n    }\r\n\r\n    Question[] public questions;\r\n    \r\n    constructor(){\r\n        owner = msg.sender;\r\n        fee = 5 * 10 ** 16;\r\n        bid = 1 * 10 ** 18;\r\n    }\r\n\r\n\r\n\r\n    modifier onlyOwner(){\r\n        require(msg.sender == owner, \"Address must be owner\");\r\n        _;\r\n    }\r\n\r\n    function vote(uint _question, uint _option) public {\r\n        if(_option == 1){\r\n            questions[_question].voted1++;\r\n        }\r\n        else{\r\n            questions[_question].voted2++;\r\n        }\r\n    }\r\n\r\n    function createQuestion(string memory _question, string memory _opt1, string memory _opt2) public onlyOwner(){\r\n        Question memory add = Question(countQuestion,_question,_opt1,_opt2,0,0,new address[](0),new address[](0));\r\n        questions.push(add);\r\n        countQuestion++;\r\n    }\r\n\r\n    function changeFee(uint _fee) public onlyOwner(){\r\n        fee = _fee;\r\n    }\r\n\r\n    function changeBid(uint _bid) public onlyOwner(){\r\n        bid = _bid;\r\n    }\r\n    \r\n    function getQuestions() public view returns (Question[] memory) {\r\n        return questions;\r\n    }\r\n}",
  "sourcePath": "C:\\Users\\ralph\\OneDrive\\Desktop\\sol\\VotingApp\\app\\contracts\\VotingGame.sol",
  "compiler": {
    "name": "solc",
    "version": "0.8.11+commit.d7f03943.Emscripten.clang"
  },
  "schemaVersion": "3.4.5",
  "updatedAt": "2022-03-19T16:46:35.734Z",
  "networkType": "ethereum",
  "devdoc": {
    "kind": "dev",
    "methods": {},
    "version": 1
  },
  "userdoc": {
    "kind": "user",
    "methods": {},
    "version": 1
  }
}